:020000040800F2
:1000000060060020E5570008995600089B56000836
:100010009D5600089F560008A156000800000000E9
:10002000000000000000000000000000A3560008CF
:10003000A556000800000000A7560008A9560008B1
:10004000095800080D5800081158000815580008F4
:10005000195800081D5800082158000825580008A4
:10006000295800082D580008315800083558000854
:10007000395800083D580008415800084558000804
:10008000495800084D58000851580008B756000854
:10009000B956000855580008595800085D5800081E
:1000A0006158000865580008695800086D58000834
:1000B0007158000875580008795800087D580008E4
:1000C0008158000885580008895800088D58000894
:1000D00091580008C1560008C756000895580008F6
:1000E000995800089D580008A1580008A558000814
:1000F000A9580008AD580008B1580008B5580008C4
:10010000B9580008BD580008C1580008C558000873
:10011000C9580008CD580008D1580008CD5600082D
:10012000D5580008D9580008DD580008E1580008E3
:100130002DE9F04F82460FF24860A5B015461E46E5
:10014000D0E90023CDE91223002004910D900DF198
:1001500050086FF0004900E03D440020ADF8020077
:1001600012AB4FF0FF3229460DF1020001F0A5F865
:100170000746012F04DA2878471EBF41FF43FF0FCF
:10018000BDF8020025280CBFA7F1010BBB46BBF14F
:10019000010F0EDB2C4614F8011B0498D0470028F1
:1001A000049000F0F3800D98401CBBF1010B0D9002
:1001B000F1D1BDF80200252807D100200790089052
:1001C00009900A900B900C9005E00028C4D10D987E
:1001D000DEE240F0010015F8011F2029F9D02329A3
:1001E0000DD02B2904D02D2906D030290AD00CE0BF
:1001F00040F0020080B2EEE740F00400FAE740F081
:100200000800F7E740F01000F4E72A290ED1316822
:10021000316051F8042B3160002A0F9204D551420D
:1002200040F004000F9180B26D1C11E000210F918D
:1002300009E00F99494505D001EB810302EB430129
:1002400030390F916D1C2A78A2F130010A29F0D3C0
:1002500029782E2903D04FF0FF310E911DE015F8BB
:10026000011F2A2907D1316831606D1C51F8042B18
:1002700031600E9211E000210E9109E00E9949457E
:1002800005D001EB810302EB430130390E916D1C67
:100290002A78A2F130010A29F0D3ADF840000FF21C
:1002A000E840297801F01AF808B115F8010B8DF82B
:1002B00042009DF84200682802BF29786829622020
:1002C00005D06C2804BF28786C2803D171208DF8E4
:1002D00042006D1C14A8069015F8017BB7F12500AB
:1002E0002AD01C3800F0DB80001F022840F2D780A3
:1002F000133800F0FC80093800F0D180801E00F037
:100300006781401E00F03D81401E022840F2C780F8
:10031000001F00F03681401F00F09280401E00F068
:10032000E680401E35D0C01E0BD0801E00F0DF805E
:10033000C01E00F0DC806EE125208DF85000012009
:1003400073E19DF842006C283068306014D050F89A
:10035000044B306005940E9F002F04D5204600F01A
:10036000C9FF074606E03A460021204600F0DEFFBE
:1003700000B1071B089759E150F8042B306002A91F
:10038000504600F03FFA002840F150814FF0FF3016
:10039000FEE131683160002251F8040B3160002128
:1003A000CDE9020114A80590DDE902019142069F02
:1003B00008BF90424FF03C0C01D10E9AC2B100F040
:1003C0000F033033DBB23A2BA8BF2733ACF1010265
:1003D0000009BB54944640EA017009090022914289
:1003E00008BF904204D0059A07EB0C039A42E6D36B
:1003F00007EB0C000590CCF13C010E98089181426E
:1004000009DA401A0A904FF6EF71BDF84000084033
:10041000ADF840000AE1002840F108819DF8400055
:1004200000F01400102840F001810F98079A801AFC
:100430000A9A801A401A0128C0F2F8800A90F5E062
:100440009DF8420062281AD0682806D06A280CD08D
:100450006C281CD0712808D019E03068306050F842
:10046000041B30600D980880E0E03068306050F880
:10047000042B30600D98C117C2E90001D6E0306846
:10048000306050F8041B30600D980870CEE0306882
:10049000306050F8041B30600D980860C6E030688A
:1004A000C01D20F007023260D2E90001083232603C
:1004B000CDE90201002902D507982D210AE0BDF8F7
:1004C0004000810702D507982B2103E0C00705D51E
:1004D0000798202108F80010401C079014A80799DD
:1004E00008440590394602A800F098FB9EE09DF86C
:1004F00042006C280DD0712818BF6A2809D13068D5
:10050000C01D20F007023260D2E9000108323260DB
:1005100005E03168316051F8040B31600021CDE90C
:1005200002019DF84200682803D1DDE9020180B292
:100530000BE0622803D1DDE90201C0B205E07428B6
:1005400018BF7A2804D1DDE902010021CDE90201BA
:100550009DF84000000732D5DDE9022300208342E8
:1005600008BF82422BD047F02000782827D1079877
:10057000302108F80010401C411C079108F8007059
:100580001DE09DF84200314600F005F9CDE9020179
:10059000DDE9022300218B4202DA07982D210AE0CF
:1005A000BDF84000810702D507982B2103E0C00762
:1005B00005D50798202108F80010401C079014A8C2
:1005C000079908440590394602A800F0A1FA2DE0E9
:1005D0009DF842006C2809D00120079030683060F7
:1005E00050F8041B30608DF850101FE03068306008
:1005F00001AA50F8041B3060ADF804100020ADF8DB
:10060000060002A94FF0FF300E90504600F0FAF8B5
:1006100000280BD5BAE625208DF850000120079060
:10062000380003D088F80170022007900F980799CE
:10063000401A0A99401A0899401A0B99401A0999C8
:10064000401A0C99471A9DF84000400710D420200A
:10065000012F8DF800000BDB3C4601236A4602A9FE
:10066000504600F005FE00287FF490AE641EF4D1E1
:10067000DDF81CB0BBF1000F14AC0DD014F8011B59
:100680000498D047002804903FF480AE0D98401C99
:10069000BBF1010B0D90F1D130208DF800000A9CC8
:1006A000012C0ADB01236A4602A9504600F0E0FD56
:1006B00000287FF46BAE641EF4D1DDF820B0059CF9
:1006C000BBF1000F0DD014F8011B0498D04700288F
:1006D00004903FF45BAE0D98401CBBF1010B0D90F4
:1006E000F1D130208DF800000B9C012C0ADB012396
:1006F0006A4602A9504600F0BBFD00287FF446AED2
:10070000641EF4D105980899DDF824B04418BBF1B3
:10071000000F0DD014F8011B0498D0470028049056
:100720003FF434AE0D98401CBBF1010B0D90F1D19C
:1007300030208DF800000C9C012C0ADB01236A4656
:1007400002A9504600F094FD00287FF41FAE641EFD
:10075000F4D19DF8400040077FF5FFAC2020012F29
:100760008DF80000FFF6F9AC01236A4602A9504655
:1007700000F07EFD00287FF409AE7F1EF4D1ECE48A
:100780000000000000000000686A6C747A4C0000F1
:1007900025B0BDE8F08F622826D068281DD06A28D1
:1007A00008D06C2827D0712804D0742823D07A2848
:1007B0000CD020E00868C01D20F007000860D0E9D8
:1007C0000023083008601946104670470A680A601E
:1007D00052F8040B0A60002170470A680A6052F858
:1007E000040B0A6000B20BE00A680A6052F8040BBE
:1007F0000A6040B204E00A680A6052F8040B0A601A
:10080000C11770472DE9F44F0D4694B0D5F830A0CC
:10081000BAF1000F804648BF6FF0004A00F0B2FD09
:10082000696B401801900FF67820D0E90023CDE9DC
:10083000022395F83800400702D40198412805D2D8
:1008400040200DF110090190002609E000F0A0FD04
:100850005FEA0009F8D14FF0FF3056E1AAEB040A35
:10086000BAF1010FC0F2CE801498018802AA0DF1EE
:10087000010000F0E5FD0028044600F1DE80149838
:10088000008810B9641E00F1D880A245C0F2BA8079
:10089000686901992218914280F0A2806E634042FB
:1008A000296A401AA969401A696A401AE969401A16
:1008B000A96A461A95F83800400710D42020012E66
:1008C0008DF800000BDB374601236A462946404677
:1008D00000F0CEFC002840F0B0807F1EF4D1D5F8A7
:1008E00014B0BBF1000F4F460DD017F8011BA868DC
:1008F000C0470028A86000F0A080E86A401CBBF157
:10090000010BE862F1D130208DF800002F6A012F31
:100910000ADB01236A462946404600F0A9FC00286C
:1009200040F08B807F1EF4D1D5F818B0EF68BBF192
:10093000000F0CD017F8011BA868C0470028A8605A
:100940007BD0E86A401CBBF1010BE862F2D1302099
:100950008DF800006F6A012F09DB01236A462946E2
:10096000404600F085FC002867D17F1EF5D1E8687D
:10097000A969D5F81CB04718BBF1000F0CD017F8C7
:10098000011BA868C0470028A86056D0E86A401C30
:10099000BBF1010BE862F2D130208DF80000AF6AA4
:1009A000012F09DB01236A462946404600F060FC1E
:1009B000002842D17F1EF5D195F8380040070DD5AB
:1009C0002020012E8DF8000008DB01236A4629460D
:1009D000404600F04DFC80BB761EF6D100266E61CD
:1009E000224668690DF10101484400F037FD68694D
:1009F000201868611498801C1490801E00880028BC
:100A00007FF42CAF686B6969401A296A401AA9699A
:100A1000401A696A401AE969401AA96AA0EB010AFA
:100A200095F83800400710D4BAF1010F0DDB544699
:100A3000A8682021C047A86010B94FF0FF365DE0DC
:100A4000E86A401C641EE862F2D16B694A46294696
:100A5000404600F00DFC0028EFD12C6A012C0ADB87
:100A6000A8683021C0470028A860E6D0E86A401C8A
:100A7000641EE862F4D1AB69EA682946404600F09A
:100A8000F7FB0028D9D16C6A012C0ADBA868302159
:100A9000C0470028A860D0D0E86A401C641EE86205
:100AA000F4D1E868A969EB6942182946404600F08C
:100AB000DFFB0028C1D1AC6A012C0ADBA868302119
:100AC000C0470028A860B8D0E86A401C641EE862ED
:100AD000F4D195F8380040070ED5BAF1010F0BDBC1
:100AE000A8682021C0470028A860A6D0E86A401C5A
:100AF000BAF1010AE862F3D16E616E6304A8814520
:100B00001CBF484600F0E6FC304615B0BDE8F08F4B
:100B10002DE9F343054608462F696F2808BF0824CE
:100B200005D041F02001782914BF0A2410243C2666
:100B3000D5E90023642818BF69289046994606D154
:100B400000218B4203DAD8F1000869EB4909002043
:100B5000814508BF80450CD1286B50B9082C38D18D
:100B600095F83800000734D530203B2687F83B0045
:100B70002FE0701E00900646404649462246E31785
:100B800000F0E8FC02F13000C0B23A2803DB9DF827
:100B9000041051390818B855494640462246E31713
:100BA00000F0D8FC804689460020814508BF80457A
:100BB00003D0E868B9198842DBD3082C09D195F82D
:100BC0003800000705D5B85D302802D0761E3020E9
:100BD000B855B919E960C6F13C00296BA861884293
:100BE00008DA081A28624FF6EF71288F0840288724
:100BF000BDE8F38300290ED595F8381001F01401F3
:100C0000102908D1696B6A69891A2A6A891A0E1A29
:100C1000012EA8BF2E62BDE8F38300002DE9F24F3C
:100C200004468EB0D4E90001CDE9020104AF9DF87D
:100C3000380040F0200BBBF1610F0AD0206B002878
:100C400048BF062004D408BFBBF1670F01D10120C3
:100C500020636168C1F30A5040F2FF7290421CD1D8
:100C6000080304BF2068002809D10320A0619DF873
:100C7000380061381A2835D30FF2386108E00320B4
:100C8000A0619DF8380061381A2828D30FF21C6142
:100C9000E068032200F0E2FBBDE1012815DA2046FE
:100CA00000F0CFFC012810DB00250020BBF1610F14
:100CB0001FD1E16830220A708A1CE2609DF838205A
:100CC000612A0CBF782258220FE0626840F2FE31A0
:100CD00061F31E52451A62604FF0FF30E6E70FF2F3
:100CE000C851D5E70FF2C851D2E74A706169891C33
:100CF000616110B90026002584E1BBF1610F40F06D
:100D00009880206BD4E900AB00284CBF2126461CFC
:100D1000DDE902010022002300F0B6FC36B23ABF42
:100D20008BF00040CDE902A0CDE902AB06F101084D
:100D30002D1FB8F1010F8DF810200DF1110736DBD2
:100D4000DDE902010022002300F0B6FC2FD21C21B5
:100D500002A800F0C9FCDDE9020100F04BFDA8F19A
:100D60000708B8F1010F814609DB00F06FFD02466C
:100D70000B46DDE9020100F081FDCDE90201F81D1D
:100D8000072105E009F00F0200F8012D4FEA2919AB
:100D9000B9F1010F01DB491EF4D5491E5CBF0022E9
:100DA00000F8012DF9D5C71DB8F1010FC8DA0DF112
:100DB0001100391AB142B8BF0E4636B230000DF1FB
:100DC00011072FD4884206DA04A90144497808297A
:100DD000A8BF0F2100DA002104AA024400E0761E19
:100DE00012F80139401E8B42F9D00F2904D104A911
:100DF00001444A78521C4A70002802D504AF761C80
:100E00002D1D36B2701E0DD439180A783032D2B288
:100E10003A2A03DB9DF838303A3B9A18401E01F815
:100E20000129F2D5206B002840F1EC80701E206370
:100E3000E8E0DDE902010022002300F025FC3CBFD0
:100E400081F00041CDE902012DB247F2975068438D
:100E50004B49DFF8309190FBF1F52DB2C5F1070A4F
:100E6000BAF1010F90461CDBDDE902675FEACA7048
:100E700007D542464B463046394600F0BFFD064690
:100E80000F464046494642464B464FEA6A0A00F042
:100E9000B5FDBAF1000F80468946E7D1CDE902677A
:100EA00024E0CAF1000A0026374F14E05FEACA7056
:100EB00007D542464B463046394600F09FFD064670
:100EC0000F464046494642464B4600F097FD4FEAE2
:100ED0006A0A80468946BAF1000FE7D1DDE90201CE
:100EE00032463B4600F05CFECDE90201BBF1660FE5
:100EF000216BDFF898900CBF05F10A000620461818
:100F0000142EA8BF132630208DF810000DF1110704
:100F1000012E3DDBDDE9020100F082FC07F1080152
:100F200004220A23B0FBF3F303EB8307A0EB470093
:100F3000303001F8010C0A20B3FBF0F000EB800721
:100F4000A3EB47033033521E01F8023DE9D1083EBE
:100F5000012E01F10807DBDBDDE9020100F060FC96
:100F600000F07EFC02460B46DDE9020100F086FC43
:100F700000224B4600F042FDCDE90201CAE700BF66
:100F8000A0860100000024400000F03F84D7974174
:100F90000DF11100381A0DF1110702E0401E6D1E0F
:100FA0007F1C39783029F9D0BBF1660F08BF691C66
:100FB00004D0BBF1650F0CBF01210021226B8E18FC
:100FC00036B2B042B8BF064636B231001AD48142BA
:100FD00004DA785C3528A8BF392000DA30207A1886
:100FE000521E00E0761E12F80139491E8342F9D0E4
:100FF000392802D1785C401C7854002902D57F1E24
:10100000761C6D1C2DB29DF83810009533B23A460F
:10101000204600F003F80FB0BDE8F08F2DE9F0474F
:1010200086B006468A4690461D4600F002FF012D16
:10103000406A376B90F8009002DA01250FF27828A9
:101040004AF02000BDF93840662808BF641C12D061
:10105000672878D114F1040F7BDBBC4279DA96F86B
:101060003800641C000702D4BD42B8BF2F4624B22A
:101070003F1B48BF002724B2F068B169012C23DA76
:101080004A1C30234354012F03DA96F83800000736
:1010900003D5F06800F80290521CE742B8BF7C42CA
:1010A00024B260427062E719AF42B261B8BF3D46F8
:1010B000F068B3692DB2F5612A464146184400F044
:1010C000CDF9781BB062BCE022469542084416DA9E
:1010D0002A46414600F0C2F9B1696918601B012F28
:1010E000B161706203DA96F83800000705D5F06840
:1010F00000F80190F069401CF061B762A1E0414640
:1011000000F0ACF9B06920182D1B012F03DA96F816
:101110003810090703D5F16801F80090401CB06150
:101120002DB2AF42B8BF3D46F068B3692DB22A4632
:1011300008EB0401184400F091F9B0692818B06177
:10114000781B70627DE0BAF1610F14D14FF0700A24
:1011500016E0BD4204DA96F83810090758BF2F464A
:101160007F1E48BF0027BAF1670F14BF4FF0450A32
:101170004FF0650A04E0BAF1410F08BF4FF0500A82
:10118000B169F368481CB061012F18F8012B5A545B
:1011900003DA96F83810090717D5F168431CB361D4
:1011A00001F80090012F10DB6D1E2DB2AF42B8BFC9
:1011B0003D46F0682DB22A464146184400F04EF9EB
:1011C000B0692818B061781B7062F068B169014499
:1011D000200081F800A004D42B20487001F10208FF
:1011E00004E02D224A7001F102086442002502AF9A
:1011F00008E00A22684600F035FE019807F8010B66
:101200006D1C009C21B20129F3DA022D06DA4AF0A6
:101210002000652804BF302008F8010B4DB93020AC
:1012200008F8010B07E06D1E02A8405D303008F899
:10123000010B012DF7DAF068B1690844A8EB000052
:10124000F06196F8380000F0140010280DD1706994
:10125000B1690818716A0818F1690818B16A0818A4
:10126000716B8842BCBF081A306206B0BDE8F087D7
:10127000F8B504460D4616461F46002077B116F80D
:10128000011BA868A047A86030B1E86A401CE8626A
:1012900000207F1EF3D1F2BD4FF0FF30F2BD000001
:1012A00000000000000000006E616E004E414E0024
:1012B000696E6600494E46003000F8B504460D469A
:1012C00016461F4600F0D6FD3B46324629462046CC
:1012D00001B0BDE8F04000F0E4BD00000278C9B202
:1012E0008A421AB11CBF10F8012FF9E718BF00207D
:1012F0007047000000F10103810704D010F8011BC2
:1013000089B18107FAD10268B2F10131914311F03C
:10131000803F04BF50F8042FF6E710F8011B11B10D
:1013200010F8011BFBE7C01A70470000C9B2830721
:1013300006D0521E22D310F8013B9942F7D11FE08C
:10134000083A13D302F1040241EA012141EA0141C2
:1013500050F8043B121F21BF4B40A3F1013C2CEA83
:10136000030C1CF0803FF3D0C9B2001F083210F804
:10137000013B521E28BF91EA030FF8D818BF012085
:10138000401E704780B500F075FD012002BD0000D1
:1013900070B5054605F10F00C408C046C046E4001C
:1013A000A54232D2082C04D2082402E0083000F012
:1013B00091F82248026811000CD1011D0A6802B39D
:1013C0001368A34238BF111DF8D310E01D68A54271
:1013D0000DD2191D0B68002BF8D11268011D00E019
:1013E000191D0B6893420CD01D68A542F8D361B15A
:1013F0000D682A68A2F10803A3420AD26A680A604B
:101400000FE000F071FD0028D0D1C046C04600209A
:1014100070BD2B190B60121B6E685E600B681A6042
:101420002C60096800291DBF4A68002A091D002197
:101430000160C046C04605F1080070BDAC0A00203E
:1014400070B504460D46164600F014FD3246294696
:101450002046BDE8704000F017BD000062B38B0766
:1014600008D0521E11F8013B00F8013B00F0248027
:101470008B07F6D1830740F0208000BF103A07D3D6
:1014800030B4B1E83810103AA0E83810F9D230BCC6
:10149000530724BFB1E80810A0E8081044BF51F872
:1014A000043B40F8043BD20724BF31F8022B20F85C
:1014B000022B44BF0B7803707047083A07D3B1E89A
:1014C0000810083A40F8043B40F804CBF7D2530721
:1014D000E4E7000000B9704738B5A0F108042068BF
:1014E000082833D310F0070F30D1C046C046184843
:1014F000416809B18C4203D26160446017E019462B
:101500004B680BB1A342FAD30B68CD18AC421BD386
:10151000A54204D12268D2180A600C4607E04A6846
:101520001AB1236823449A420ED362604C6061680A
:1015300051B12268A3188B4206D1002303600868CA
:101540008018206048686060C046C04631BD000019
:10155000AC0A00201B4213D1094236D12AB184467D
:10156000B0FBF2F002FB10C2704700F0D3BCFCD31A
:101570000022002370470B0002000021002070476A
:10158000904271EB030CF6D370B5B1FA81F4B3FA63
:1015900083F52C1BA340C4F1200532FA05F6334332
:1015A000A2405FF00046E64002E05B085FEA3202DC
:1015B000841A71EB030524BF204629467641F4D3F3
:1015C00002000B003000002170BD012ACFD970B598
:1015D000140C20D0B1FA81F4B2FA82F5C4F12004DF
:1015E0006419B4F12006D6D3B2405FF00044F44051
:1015F000002502E052085FEA3303C61A71EB020EBF
:1016000024BF3046714664416D41F3D302000B00A4
:101610002000290070BD0C46B1FBF2F102FB114520
:101620002D0445EA1045B5FBF2F402FB145580B2D7
:1016300040EA0545B5FBF2F002FB105240EA0440D7
:1016400070BD30B4436803F000420121C3F31303BB
:101650004360002B04BF0368002B08D10DE0036832
:10166000DD0F45EA440444605B000360491E4468A2
:10167000E302F4D5C4F31303436043681A434260A2
:10168000084630BC704700004FF4001C1CEB410FB3
:1016900094BF1CEB430F09E041EA030C50EA4C0CE9
:1016A00052EA0C0C03D2994208BF9042704714BF13
:1016B0008B428242704700004FF4001C1CEB410F2C
:1016C00094BF1CEB430F09E041EA030C50EA4C0CB9
:1016D00052EA0C0C03D28B4208BF8242704714BFFF
:1016E000994290427047000070B504460D4660680C
:1016F000C0F30A5040F2FF71884207D160680003CE
:1017000004BF2068002817D0022070BD20B92046F1
:10171000FFF797FF012866DA012D0FDB40F2FF711A
:10172000091A8D420AD36068002847BF00202F495C
:1017300000202F49C4E90001012070BD4142A942A7
:10174000616806DA6FF31E51401941EA005060608B
:1017500040E0401E63684519012205F1350062F33F
:101760001F53352801F00041636003D361600020FE
:10177000206070BD002015F11F0F04DA206823607F
:101780000022203562606A4212D0401E25688041E6
:10179000C2F12003C0439D4045EAD07025686668C9
:1017A000D54006FA03F32B4323606368D34063609C
:1017B00062680A43B0F1004F626003D80DD120780F
:1017C000C0070AD52068401C2060206828B96068DE
:1017D000401C60604FF0FF3070BD6068884204BFFD
:1017E00020680028F6D1002070BD00BF0000F0FF87
:1017F0000000F07FF446400D40EAC120490006D2C7
:1018000000F014F8004248BF6FF00040604700F05D
:101810000DF84FF0004188428CBF084640426047B7
:10182000400D40EAC120490080F00D8040F00040AA
:10183000490DA1F58061491C05D4D1F11F0154BFA8
:10184000C840C01770474FF000007047010040F1DA
:101850000980F446404200F005F851F0004160472D
:10186000010000BF09D0B0FA80F18840C91CC1F561
:101870008461090501EBD02140057047F0B44FF0B9
:10188000004591EA030F44BF6B4000F04FBB00BF1F
:10189000841A71EB030604D26E40001BB141121989
:1018A00073414FF4001C1CEB410F34BF7CEB43062B
:1018B00084E00C0DA4EB1356362E7DDC012E43DCA8
:1018C00045EAC32343EA525312BFD20292025B0895
:1018D000240545EAC12141EA5051D2EBC02099418B
:1018E00025D407D1B0FA80F610FA06F164D00020B2
:1018F000203608E0B1FA81F6B140C6F1200220FAA4
:1019000002F21143B0404FEAF474B4EB465434F0A1
:1019100001064FEA74040AD8D6F50016760D04F0D5
:101920000044F04061FA06F25040F1404840C00ADD
:1019300040EA415021F0004128BF5FEA500550F1D4
:10194000000044EBD12137E045EAC323DB0A45EA36
:10195000C121C90AB6F120050EDD42EA0242120C8D
:10196000C5F1200603FA06F6EB4042EA06056D4291
:10197000984161F100010DE062FA06F5F240554030
:1019800063FA06FC82EA0C02F3405A406D42904131
:1019900061EB030111F4801F05D1641E620502D0C2
:1019A0006D004041494121F48011430875F1004325
:1019B00050F1000041EB0451F0BC70471CEB410FAB
:1019C00015D223F0004352EA43060BD04FEA4C0CE9
:1019D000BCEB410F04D80C0D661E342EB7DDEBE7CF
:1019E000801A994150EA410608BF0021E4E708BF88
:1019F0001CEB430F28BF6FF00001DDE7B0B581EAB3
:101A0000030C0CF0004C40F2FF7515EA11541DBF99
:101A100015EA1357AC42AF4239E0E41923EA4553C3
:101A200043F48013C90241F0004141EA505EC7020D
:101A30001100A7FB020200284FF00000EEFB01207E
:101A40004FF00001E3FB072118BF42F001024018EC
:101A500000214941E3FB0E01A4F580640F0302D28B
:101A600052004041494154F101046CDD470872F1D4
:101A7000004250F1000051EB0451A1F580115CBF10
:101A800041EA0C01B0BD4CEA05510020B0BD05EAA9
:101A90001357AC4214BFAF4241E050EA410E1CBFA5
:101AA00052EA430E02E061460020B0BD24423C44AD
:101AB0001BD15FEA070EF6D0090302BF01460020E2
:101AC000AEF1140EB1FA81F7AEEB070401FA07FE8E
:101AD0000C37C7F1200100FA07F7C8404EEA000EA4
:101AE00023EA455343F48013A2E733F00043B3FAEB
:101AF00083F704BFB2FA82FE77440B3FE41BB7F1D1
:101B0000200E2FBF02FA0EF3BB40C7F1200E22FABF
:101B10000EFE38BF43EA0E03BA40641C82E750EA67
:101B2000410E14BF52EA430E6FF000014FF400174C
:101B300017EB430F8ABF194617EB410FB5E74CEA85
:101B400005510020B0BDD4F10104B4F120070FDA33
:101B5000C4F12007520828BF42F0010210FA07F52D
:101B600001FA07F7E1BF2A43E0403843E1400FE0C4
:101B7000352C98DCC7F1200452EA400220FA07F223
:101B800018BF42F0010231FA07F0A1400A430021D8
:101B900072F1004250F1000051EB0C01B0BD0000A9
:101BA0002DE9F04140F2FF7581EA030C0CF0004C86
:101BB00015EA11541DBF15EA1357AC42AF42E9E0D4
:101BC000BC41C1F31301C3F31303801A994143F4D9
:101BD000801304D2641E4000494180185941C90253
:101BE00041EA5051B1FBF3F603FB1611A2FB067557
:101BF000D7EBC020A94102D2761E80185941C902F4
:101C000041EA5051B1FBF3FE03FB1E11A2FB0E751E
:101C1000D7EBC020A94103D2AEF1010E8018594183
:101C2000890241EA9051760546EA8E2EB1FBF3F621
:101C300003FB1611A2FB0675D7EB8020A94102D247
:101C4000761E80185941C90241EA50514EEA060EEB
:101C5000B1FBF3F603FB1611A2FB0675D7EBC02010
:101C6000A94102D2761E80185941C90241EA505159
:101C7000B1FBF3F703FB1711A2FB0735D3EBC02031
:101C8000A94167F100070CBF004247F0010766F366
:101C9000D5274FEA1E31B80814F5806414DDBD075E
:101CA00075F1004250EB0E5051EB045111F5801FBD
:101CB0005CBF41EA0C01BDE8F0814CF07F6141F06E
:101CC000E0410020BDE8F081BD076D0840EA0E50FC
:101CD00041F48011D4F10104B4F120060ADAC4F110
:101CE00020060200E04001FA06F3E1401843B2404A
:101CF00015430EE0342C14DCC6F1200445EA4005FF
:101D00006D0820FA06F2154321FA06F0A1400D43B2
:101D1000002175F1004250F1000051EB0C01BDE8CB
:101D2000F08100205FEA0C01BDE8F081CFB9921884
:101D30005B41B3FA83F704BFB2FA82F6BF190B3FD7
:101D4000B7F120062FBF02FA06F3BB40C7F1200609
:101D500022FA06F638BF3343BA401CB1E419641EB8
:101D60002FE77F4231F00041B1FA81F404BFB0FAAD
:101D700080F6A4190B3CB4F120062FBF00FA06F13F
:101D8000A140C4F1200620FA06F638BF3143A04036
:101D90003C1B16E7AC421ABF05EA1357AF4214E0EA
:101DA00050EA41061CBF52EA4306BFE750EA41072A
:101DB000304661461CBF41EA0551BDE8F08152EA58
:101DC000430C08BFC143BDE8F08100204FF400166A
:101DD00016EB410F98BF16EB430F08BF16EB410FF0
:101DE00024BFC14305E016EB430F0CBF61464CEA2C
:101DF0000551BDE8F081000080B5134800F000F9FE
:101E00000FF24C020FF244010160426241600FF296
:101E10004402826381600FF24402C160016141614A
:101E200081618162C16201634163C2630164416493
:101E300001BD10B5044800F0E3F80446206808B975
:101E4000FFF7DAFF204610BD64010020000000000B
:101E50002E00000066616C73650000007472756589
:101E60000000000091FBF2F303FB1211C0E9003106
:101E70007047000080B5DFF80C0000F0C1F8806901
:101E800002BD0000F401002030B430B90FF2480068
:101E9000D0E90045C2E900451BE00170012030BCDB
:101EA000704730B431B90FF23800D0E90045C3E9CA
:101EB00000450EE01AB930BC6FF00100704708B160
:101EC0000A7802800978481E804130BCC043C00FA8
:101ED0007047002030BC7047000000000000000088
:101EE00000000000000000000749086808B1002059
:101EF00070470648C008C00008600549C908C90005
:101F0000091A0160704700BFB40A0020670600206C
:101F10006008002070470000F0B44FF0004591EADF
:101F2000030C44BF6B40FFF7B3BC00BF841A71EBD6
:101F3000030603D2001BB141121973414FF4001C78
:101F40001CEB410F34BF7CEB430443E00C0DA4EBCE
:101F50001356352E50DC45EAC323DB0A45EAC1217E
:101F6000C912B6F120050DDD63FA05F6EB4086EAED
:101F70000305124218BF45F00105C01851F10001D8
:101F80000CD213E062FA06F5F2405540F3415A4094
:101F9000B340F3405A408018594107D349085FEADB
:101FA00030005FEA350528BF45F0010501F58011D5
:101FB000420875F1004250F1000041EB0451F0BCC1
:101FC0004FF4001C1CEB410F38BF70470020090D77
:101FD000090570471CEB410F10D252EA43060BD0A3
:101FE000BCEB410F05D80C0DAB43661E342EB5DD9E
:101FF00002E0AB4380185941F0BC7047F0BC704719
:102000007047000010B582B004468DF800004FF410
:102010007A7301226946DFF83C0800F0B9FC2046DB
:1020200016BD38B5DFF83058DFF8304840F2276089
:10203000A8600A2000F038FF606F286040F2DC558D
:102040000A2000F031FFDFF8180805600A2000F0D0
:102050002BFFDFF81018042008600220DFF80818B2
:1020600008600520DFF804180860656731BD006866
:10207000DFF8FC17884212D1DFF8F817DFF8DC0729
:102080000968012902D1016F491C0167816F491C50
:102090003D29816703DB0021816700F019BF70478C
:1020A0002DE9F04F91B04FF03330DFF8CC17DFF867
:1020B000CC47CDE9060100F041FF00F0EBFADFF874
:1020C000C007016841F0200101600022016801F0B1
:1020D000200104910499016841F004010160016844
:1020E00001F0040104910499016841F008010160C4
:1020F000016801F0080104910499016841F01001A0
:1021000001604FF48071006800F0100004900498A2
:10211000204600F0EFFF4FF48070009069460120E8
:1021200001900020029002200390204600F018FF4A
:102130004FF4806000906946002001904FF496446F
:1021400002200290DFF83C0700F00AFFDFF80417D6
:10215000DFF8340708604C6000208860C8600861C0
:102160000C20486100208861C861084600F0D8FB57
:1021700000B1FEE7DFF81467DFF8140706F1140575
:102180006867AC67002006F19404E867206060602F
:102190000C20A0600020E060206106F18800029021
:1021A00000F0BEFB00B1FEE7DFF8B076DFF8E40632
:1021B00038600020B860F86078614FF46020F86102
:1021C0000020786001203861384600F0B5FF00B18A
:1021D000FEE701200390049003A9072005903846EC
:1021E00001F047F900B1FEE700F0EFFA00F096FACF
:1021F000DFF8A40660634FF4E130A0630020E063E1
:10220000206460640C20A0640020E064206506F176
:10221000C800039000F084FB00B1FEE7DFF87C0605
:102220002863092068630020A863E8634FF4A020B6
:10223000286400206864A864E86428656865A86567
:10224000E86506F1440001F007FA00B1FEE7DFF8A7
:102250002006606742F20F7141F61F40A067002020
:10226000E0674FF48A70301801600021C1604FF4BC
:1022700084703418204601F00FFC00B1FEE700F036
:1022800045FB00B1FEE7DFF818960821484601F04B
:1022900041FC0421484601F03DFC0021484601F084
:1022A00039FC002107F1300001F034FC204601F038
:1022B00000FC08A80021C0E900111FE0DFF8981514
:1022C000086000F0DBF900F0DFF904D200F0CAF991
:1022D00000F0DAF905D3DFF8CC050068002800F03B
:1022E0003E81DFF8C41500200860FFF79AFEDFF892
:1022F000B41500200860DFF87C1508604FF4BC704E
:102300003018049001460122DFF8480500F0EEFB8A
:102310004FF48061DFF86C0501F0C4FE029801F013
:102320006AFF00F09BF9DFF88405006801284FD1AF
:102330000AA81C2102F068F8DFF87435DFF81405EC
:10234000072208A900F074FB0028F5D10AAA01E0D1
:10235000012804D008A9095C303942F82010401C3B
:102360000728F5DB0A98FFF771FA04460C9800F08D
:1023700067F900F068F900F06DF904460D9800F077
:102380005FF900F059F900F065F904460E9800F085
:1023900057F900F04DF900F05DF904460F9800F090
:1023A0004FF900F065F900F055F90446109800F077
:1023B00047F900F039F900F04DF9CDE90601DFF8F1
:1023C000EC1400200860DDE90623ABA002F020F841
:1023D000DFF8A0040068012890D11322DFF8D03480
:1023E000DFF87004314600F023FB0028F5D13218E5
:1023F000315C2032401C1173303909281170F6DB32
:10240000002031183218497A82F83810401C3039CF
:102410000A281175F5DB4FF4A47006EB0008287B41
:102420006A7B0A2101FB0020FFF710FA0446E87BD3
:1024300000F00DF900F007F900F00CF90446287CD3
:1024400000F005F900F0F8F800F004F90446687CA3
:1024500000F0FDF800F0ECF800F0FCF80446A87C71
:1024600000F0F5F800F004F900F0F4F80446E87C18
:1024700000F0EDF800F0D8F800F0ECF80446287D04
:1024800000F0E5F800F0CCF800F0E4F8C8E9080145
:102490006A7828780A2364215A4301FB0020A9782E
:1024A0000818FFF7D3F90446287900F0D0F800F0B7
:1024B000CAF800F0CFF80446687900F0C8F800F0D8
:1024C000BBF800F0C7F80446A87900F0C0F800F0A7
:1024D000AFF800F0BFF80446E87900F0B8F800F073
:1024E000C7F800F0B7F80446287A00F0B0F800F01A
:1024F0009BF800F0AFF80446687A00F0A8F800F006
:102500008FF800F0A7F8C8E90A01DFF84C1340F291
:102510000E608860029801F06EFED8E90801D8E9E3
:102520000A49C8E90401C8E90049D8E90623FFF7C8
:10253000A5F9D8E9022382468B4620464946FFF793
:102540009DF952465B4601F075FF00F065F8824642
:102550008B46FFF766FDDFF85013012008600499F1
:10256000BC48012200F0C2FA029801F044FE386F24
:1025700003280FDB00F076F80446894600F07EF869
:1025800022464B4601F056FF00F046F882460020F6
:102590008B46386700F062F802460B4650465946B3
:1025A000FFF76CF9DDE90623FFF728FA4FF0FF3259
:1025B000C04BFFF769F80446894602D20022BE4BA1
:1025C00006E00122BD4BFFF777F805D80022BC4B8F
:1025D000FFF7A2FC04468946786FFFF737F9CDE98B
:1025E0000001002220464946B64BFFF707FADDE915
:1025F0000023FFF791FCFFF7FDF840F2C671884217
:10260000786702DB0846786758E640F2F331884283
:10261000FADA40F2F230F6E7AB4AAC4BFFF7EEB92C
:10262000AB4AAC4BFFF7EAB9AB4AAC4BFFF7E6B9A4
:10263000AB4AAC4BFFF7E2B9AB4AAC4BFFF7DEB9A4
:102640008946FFF703B9AA4AAA4BFFF7D7B98946CB
:10265000FFF706B922464B46FFF75EBC03997D485B
:1026600001F02EBDD8E90401D8E90623FFF706B929
:10267000A14AA24BFFF7C2B9256C6600D8E9000158
:10268000D8E90223FFF7FAB821F000419C4A9B4B9E
:10269000FEF7FABF00B595B001200B9000210D9117
:1026A0004FF480300C90012113900F914FF4E01003
:1026B0000221149012910BA801F022FF00B1FEE755
:1026C0000F200090022102200190002002904FF480
:1026D0008060039000200490684602F07EF800B10C
:1026E000FEE7022005904FF40040079005A802F095
:1026F0005FF900B1FEE702F026F94FF47A71B0FB02
:10270000F1F002F07EFA042002F08FFA002200219C
:102710004FF0FF3002F04EFA15B000BD794810B509
:102720004E4C20634720606394B00020A06344F6C1
:102730001F60E063002020646064A06404F1300046
:1027400001F0AAF900B1FEE74FF48050109010A9F3
:1027500004F1300001F004FB00B1FEE704F13000A9
:1027600001F0C7F900B1FEE700900190694604F15D
:10277000300002F0A4FA00B1FEE7602009900022C8
:1027800000200A900B900C900D900E900F9009A9CC
:1027900004F1300001F078FA00B1FEE702900390F6
:1027A00004900590069002A94FF400500790002075
:1027B000089004F1300002F059FA00B1FEE704F18C
:1027C000300002F071FB14B010BD4F4810B5344C0E
:1027D0002060472060608EB00020A06044F61F603B
:1027E000E06000202061A061204601F055F900B1B1
:1027F000FEE74FF48050099009A9204601F0B0FA95
:1028000000B1FEE7204601F074F900B1FEE700F0E8
:102810007DF800B1FEE760200290002200200390C6
:102820000490069000F078F800B1FEE7042200F072
:1028300073F800B1FEE7082200F06EF800B1FEE781
:102840000C2200F069F800B1FEE7204602F02CFBF4
:102850000EB010BD6C0A002034040040240000209B
:10286000342C01401C01002014010020180100201C
:1028700000140040080100203333D33F0010014012
:102880001810024000080140003801406008002094
:102890000044004000240140004800400064004023
:1028A0002C0A0020100100200C0100202001002033
:1028B000A0860100FF7F66C00080764000806640F1
:1028C000008076C00000244046DF617EDCA54C40DD
:1028D0008DEDB5A0F7C6B03EF168E388B5F8E43EEB
:1028E000FCA9F1D24D62503F7B14AE47E17A843FA0
:1028F0009A9999999999B93F2D431CEBE2361A3F61
:102900002E431CEB002C014000040040009001907D
:102910006946204602F0D3B902A9204601F0B4B9B5
:1029200038B5050001D1012032BD05F138046078C9
:1029300008B900F013F800F015F800F007F821F0DE
:102940002A01FFE7416100F017F832BD28680169EC
:1029500021F4904101612868416970472070284640
:1029600002F0C7BA242060702868C16821F40051C1
:10297000C160284600F025BA2868C16841F40051BA
:10298000C1600020606020206070A070002070474F
:102990002DE9F843044604F138070D4678782028DD
:1029A0001646984641D10DB1300001D101203DE0DD
:1029B0003878012839D00120387000207860212033
:1029C000787002F035FBA6848146E68403E0216836
:1029D00015F8010B4860E08CC0B1E08C401EE0842B
:1029E00000F079F80DD100F07DF8B8B92888216899
:1029F000C0F3080048602069002814BF6D1CAD1C9E
:102A0000E9E700F06FF80028E1D007E0CDF800809A
:102A10004B460022402100F067F808B1032005E092
:102A2000202078700020387000E00220BDE8F2839A
:102A30002DE9F843044604F138070D46B8782028FC
:102A40001646984644D10DB1300001D1012040E036
:102A5000387801283CD0012038700020786022208E
:102A6000B87002F0E5FAA6858146E685E08D50B3A0
:102A7000E08D401EE08500F02EF812D100222021CA
:102A800000F032F890B9206900282068406819BF2A
:102A900000F0FF0025F8010BC0F3080025F8020B39
:102AA000E4E70022202100F01FF808B1032010E025
:102AB000206900282068406802D105F8010BD5E79D
:102AC00000F07F00F9E72020B8700020387000E0A7
:102AD0000220BDE8F2834B46A068CDF80080B0F537
:102AE000805F7047002280212046E0E010B500F1B1
:102AF00038039C78202C21D109B1140001D1012088
:102B000010BD1C78012C19D001241C7081628285B3
:102B1000C285002159602221997000211970016835
:102B2000CA6842F48072CA6001684A6942F00102D0
:102B30004A610068C16841F0200101E0022010BD37
:102B4000C160002010BDC16020684169490849008A
:102B500041617047416921F040014161606B7047FC
:102B600038B5044623681868D9685A6910F00F050B
:102B700007D182065DD58A065BD52046BDE8324086
:102B8000D6E0D50702D411F4907F52D0C30705D503
:102B9000CB0503D5E36B43F00103E363430705D59E
:102BA000D30703D5E36B43F00203E363830705D543
:102BB000D30703D5E36B43F00403E363030705D5B1
:102BC000D20703D5E26B42F00802E263E26B002A0F
:102BD0006CD0800604D5880644BF204600F0A8F8D3
:102BE00020684069E16B090701D440061BD52046E7
:102BF00000F088F82068416949060FD5FFF7AAFF61
:102C000060B10FF221114163606B02F017FA0028E6
:102C10004CD0606B416BBDE8344008472046BDE8AE
:102C2000324002F099BA204602F096FA0020E063A2
:102C300031BD02062AD50A0628D594F83900212884
:102C400034D1A068B0F5805F206A0BD10088C0F352
:102C50000800586020690028206A0CBF801C401CB6
:102C6000206203E0411C216200785860E08C401E25
:102C7000E08480B2D0B92068C16821F08001C160D1
:102C80002068C16841F04001C16031BD40060DD5EA
:102C900048060BD5D86820F04000D860202084F882
:102CA00039002046BDE8324002F057BA31BD2DE967
:102CB000F041069E04460D4690461F462068006877
:102CC0002840A8420CBF01200020404517D116F132
:102CD000010FF3D026B102F0ABF9C01B8642EDD252
:102CE0002068C16821F4D071FFF72DFF04F138008E
:102CF00020214170817000210170032000E000203C
:102D0000BDE8F0810168CA6822F49072CA60016867
:102D10004A69520852004A61202180F83A107047EF
:102D200000000000406A0021C185C18402F014BA8D
:102D300080B590F83A10222941D18168B1F5805FC1
:102D400012D10269816A002A0268526805D1C2F371
:102D500008020A80816A891C04E002F0FF020A80EE
:102D6000816A491C81620FE001690029816A04D1EE
:102D70004A1C82620268526805E04A1C826202684C
:102D8000526802F07F020A70C18D491EC18589B266
:102D900099B90168CA6822F02002CA600168CA684D
:102DA00022F48072CA6001684A69520852004A617E
:102DB000202180F83A1002F0D1F9002002BD022053
:102DC00002BD2DE9F0470446642520680169E268E8
:102DD00021F44051114301611926C168304A114064
:102DE000A26811432269114362691143C1604169BC
:102DF000A26921F44071114341612A4988420ED1F0
:102E000001F0ACFD074601F0A9FD804601F0A6FDEA
:102E1000814601F0A3FD824601F0A0FD0DE001F026
:102E200095FD074601F092FD804601F08FFD814639
:102E300001F08CFD824601F089FD06FB08F3616814
:102E40008900B3FBF1F306FB07F206FB09F7B7FBBA
:102E5000F1F7B7FBF5F705FB17331B013233B2FB74
:102E6000F1F2B3FBF5F3B2FBF5F203F0F00303EB81
:102E70000212704306FB0AF3B0FBF1F0B3FBF1F36F
:102E8000B0FBF5F005FB103000013230B0FBF5F07F
:102E9000216800F00F0080188860BDE8F08700000E
:102EA000F3E9FFFF0038014038B5044602F0C0F8EE
:102EB00014F1010F054602D004480078041902F00D
:102EC000B7F8401BA042FAD331BD00BFEC00002090
:102ED00010B5044600F0B8F94FF47A71204600F0BE
:102EE000D8F9E8B9204600F0C1FAFEF7B9FC4FF076
:102EF00066320C4BFEF782FD00220B4BFEF77EFD87
:102F000000220A4BFEF77AFD0022094BFEF748FE2D
:102F1000BDE8104002460B460FF2180001F078BAE7
:102F200010BD000066660A400000303F0080594036
:102F30000000344062252E316C66000080B50748E1
:102F4000016841F010010160032001F026FE00201D
:102F500002F096F901F0D8FE002002BD00200240E8
:102F60002DE9F8474FF0000E0022644BDFF8908106
:102F7000DFF890914FF00F0A012707FA02F60F6869
:102F80003740B74240F0AA804C685CB3012C1AD09D
:102F9000022C1FD0032C31D0112C17D0122C1DD095
:102FA000594DAC421CBF594DAC421BD0584DAC42A0
:102FB0001CBF584DAC4215D0574DAC421CBF574DAD
:102FC000AC420FD01CE0D1F80CE019E0CC6804F161
:102FD000040E15E0CC6804F1080E11E0CC6804F191
:102FE0000C0E0DE08C6814B94FF0040E08E0012CB3
:102FF0004FF0080E14BF4661066101E04FF0000E6D
:10300000FF2F02D88446940004E0A2F1080400F1E6
:10301000040CA400DCF800500AFA04F6B5430EFADA
:1030200004F42C43CCF800404C68E40056D5D9F8A1
:10303000004044F00104C9F800404FEA920CD9F86E
:10304000005005F001040094009C58F82C509400A6
:1030500004F00C040AFA04F6B543314EB04208BF3E
:10306000002618D02F4EB04208BF012613D02E4E96
:10307000B04208BF02260ED02C4EB04208BF032635
:1030800009D02B4EB04208BF042604D0294EB042CE
:103090000CBF0526062606FA04F42C4348F82C40FB
:1030A000FD434C68E4031C684CBF3C432C401C604F
:1030B0004C68A4035C684CBF3C432C405C604C688B
:1030C000E4029C684CBF3C432C409C604C68A402CA
:1030D00047BFDC682743DF682F40DF60521C102A9F
:1030E000FFF44AAFBDE8F1878068084018BF0120AF
:1030F000C0B2704702B90904016170470004014081
:1031000008000140181002400000111000001210C9
:1031100000002110000022100000311000003210C9
:1031200000080140000C0140001001400014014063
:1031300000180140001C0140F8B504460025002697
:10314000002C7AD004F12407786820B9B860387070
:10315000204601F023FE204600F05CFA7968C9069B
:103160006CD401006AD17968DFF86C2421F48851AD
:1031700041F0020179602168D4F804C0E36891420B
:10318000E26904BFB2F5402F4FF4002242EA0C027C
:10319000D4F808C0BCF5807F14BFBCF1010F4FF418
:1031A0008075D4F814C0BCF1010F42EA43020FD17C
:1031B00033B9A3695B1E5B0343F400631D4307E05F
:1031C0007B6843F020037B60BB6843F00103BB6076
:1031D0004B6823F469432B434B602168DFF8FC53B1
:1031E0008B682B4013438B60A168B1F5807F18BFBB
:1031F000012902D12169491E0E052168CB6A23F4F9
:1032000070033343CB622168DFF8D43389681940F7
:10321000914208D10021B960796821F0020141F0A2
:1032200001017960F2BD786820F0020040F01000E2
:103230007860B86840F00100B86003E0786840F05A
:10324000100078600120F2BD70B500F0F3F801D1F4
:10325000022070BD00F0DFF8010019D16968DFF8C5
:10326000842300F0DCF80DD10E6816F4702F09D01D
:1032700000F0B8F800F0C4F846BFAB6823F00603CE
:10328000002302E000F0A8F8F4E700F0B1F8D7E07E
:103290009FE02DE9F04182B00446002000900D46E9
:1032A00001F0C6FE064620688168C90504F12407BE
:1032B00007D5786840F02000786000203870012041
:1032C00085E04168C90512D4C06A10F4700F0ED1B0
:1032D0002068006880075CD415F1010FF8D0002D3C
:1032E0004FD001F0A5FE801B8542F1D249E00220BB
:1032F00001F0CCFB2168DFF8F0E2D1F810C0DFF874
:10330000EC22DFF8EC321CEA0E0F02BFD1F80CC041
:10331000DFF8E0E21CEA0E0F09D1D1F810C01CEA78
:10332000030F05BFC96811422921142112E0D1F809
:1033300010C01CEA030F04BFCB68134207D00B690F
:10334000DFF8B422134204BFC968114201D15421ED
:1033500000E0FC21DFF8A4221268B2FBF0F001FBD0
:1033600000F802E00098401C00900098404510D200
:1033700015F1010FF6D025B101F05AFE801B8542F0
:10338000F0D2786840F004007860002038700320A4
:103390001DE021686FF012000860786840F400704A
:1033A00078602068806800F46020B0F5602F04BF6A
:1033B000E06800280AD1786820F480707860786826
:1033C000C00403D4786840F0010078600020BDE8B4
:1033D000F6810021297070BD6E6826F480166E603B
:1033E0005B6870476B6843F480136B600B687047D1
:1033F000AB6000232B706FF0020325682B607047D1
:103400005B0505D56B6823F4005343F480536B6070
:103410006B68DB047047012028702046A6E011404D
:1034200041F4807169602368DFF8D421DFF8D4119A
:1034300093427047044604F1240528780128704718
:1034400023689C6804F46024B4F5602F09D193428A
:1034500003D1096811F4702F03D1996841F4A001D8
:1034600002E0996841F48011996070BD0068C06CF9
:103470007047F8B50A46002100F1240300911C783A
:10348000012C01D10220F2BD01241C701F265768B7
:1034900014680568072F08D27F1E07EB8707D5F849
:1034A00034C000F05DF86C6312E00D2F08D2FF1FEE
:1034B00007EB8707D5F830C000F052F82C6307E01F
:1034C0000D3F07EB8707D5F82CC000F049F8EC62F8
:1034D00007271668956804680A2E08D30A3E06EB8B
:1034E0004606D4F80CC000F035F8E56006E006EBBF
:1034F0004606D4F810C000F02DF825611468102C91
:1035000018BF112C22D100683F4CA04219D13F486E
:10351000046824021AD4046844F4000404601068A7
:10352000102813D135483A4A0068B0FBF2F00A225D
:1035300050430090009800281CBF0098401EF8D10E
:1035400004E0586840F02000586001210020187005
:103550000846F2BDB7402CEA0707B5403D43704727
:10356000BE402CEA0606BC403443704738B50446DA
:103570000020009020688168C90729D4816841F043
:10358000010181601D4822490068B0FBF1F001E0B3
:103590000098401E009000980028F9D101F048FDE5
:1035A000054620688068C00712D401F041FD401B29
:1035B0000328F6D304F12400416841F01001416072
:1035C000816841F00101816000210170012032BD5C
:1035D000002032BD00000000003C0140FDF7E1FF8B
:1035E000FE0E1FFFFEFDFFFF244992249224490096
:1035F000922449122449920049922400F8000020A4
:103600000028014004240140002401400824014016
:1036100040420F0038B5044620688168C90719D5B3
:10362000816849084900816001F002FD0546206873
:103630008068C0070ED501F0FBFC401B0328F6D3C1
:10364000A06A40F01000A062E06A40F00100E06271
:10365000012032BD002032BDF8B504460026002C02
:103660006BD004F13C05287818B96870204601F049
:10367000B0FB00F064F82068016841F001010160CE
:1036800001F0D6FC074620684168C90705D401F05F
:10369000CFFCC01B0B28F6D341E04168C9074AD5CF
:1036A000A1690129E16908BF80260129216A08BFB3
:1036B00046F040060129616A08BF46F0200601294C
:1036C000A16A08BF46F010060129E16A08BF46F06A
:1036D00008060129016808BF46F0040621F0FC0134
:1036E00031430160A068E1680843216908436169CA
:1036F00008436168491E08432168C8612068016861
:1037000049084900016001F093FC074620684168C0
:10371000C90707D501F08CFCC01B0B28F6D300F0BD
:1037200016F8F2BD4068C00705D40020686001208B
:1037300028700020F2BD042028700120F2BD022074
:1037400028702068016821F00201016070470320A1
:1037500028700020687003207047F8B504460020E8
:103760002268D368002100255669DB0605D533079A
:1037700003D510234FF40075D3602268136956698E
:10378000DB0605D5730603D5102345F48065136168
:1037900004F13C0622685369DB0748D597686B4BF8
:1037A0001F409F429768684B08BF01201F409F42FF
:1037B0009768644B08BF01211F409F420CBF012343
:1037C00000230843184332D0906891684008490AA2
:1037D000936800F0010001F00101084303F00101CA
:1037E00008431DD0506940084000506130781228CD
:1037F00004D12068416921F40F41416130784228A9
:1038000008D0522804D072280CBF6220012002E0A8
:10381000322000E022203070204601F051FD01E00E
:1038200045F4006520684A4A816811438160206838
:10383000C168406911F0030105D0800703D500215C
:10384000204600F08DF820680169406911F00301FD
:1038500005D0C00603D50121204600F081F870682C
:1038600028437060206800F077F8C90707D5D105B4
:1038700005D5190403D5716841F00101716000F0AC
:103880006BF8890707D5910505D5190403D571682B
:1038900041F00201716000F05FF8490707D551055A
:1038A00005D5190403D5716841F00401716000F079
:1038B00053F801F07001491E8941C90F2FD111053C
:1038C0002DD519042BD5816901F0700110290AD07A
:1038D00020290CD030290ED0402910D0502912D0E8
:1038E000602914D017E0716841F0080112E0716896
:1038F00041F010010EE0716841F020010AE07168AA
:1039000041F0400106E0716841F0800102E0716819
:1039100041F480717160816921F07001816170688A
:1039200070B121680B4A0420486001203070206883
:103930004169114041612046BDE8F24001F0C1BC3F
:10394000F1BD0000000001100001000801000004AA
:1039500009050100A470FFFF81694269436970474E
:1039600038B504680A0004EB01140CBF426B826B8B
:10397000D4F8B04114F004049460056805EB011517
:10398000D5F8B04107BF640D1460E40854600468C2
:1039900004EB0114D4F8B04104F00204D46000F048
:1039A00069F8116204F00F04146100F063F8C4F3C5
:1039B0000724D46100F06AF8147500F067F8240A4F
:1039C000547500F063F8240C947500F05FF8240E31
:1039D000D47500F055F8147600F052F8240A5476A5
:1039E00000F04EF8240C9476046804EB0113D3F82D
:1039F000BC311B0ED3760B00026806D12023D360A6
:103A00000268536923F00A0305E02023136102686A
:103A1000536923F05003536190F83C20222A18BFC9
:103A2000322A04D10268536923F40F4353610029F9
:103A300090F83C100AD142290FD0622902D0722995
:103A400002D010E032210FE052210DE0522904D0C3
:103A5000622904D0722904D005E0122104E0222159
:103A600002E0422100E0012180F83C1001F02AFC34
:103A7000002032BD046804EB0114D4F8B44170474F
:103A8000046804EB0114D4F8BC417047046804EBEB
:103A90000114D4F8B841704738B5040001D10120B1
:103AA00032BD00F033F818B92870204601F0CAF989
:103AB0000AE00068C16841F00101C160016841F09D
:103AC000010101600020704702206870211D2068FC
:103AD00000F0AFF901206870002032BD03D1416CC5
:103AE00041F400414164016841F00101016000209E
:103AF00010BD38B5040001D1012032BD00F006F838
:103B000018B92870204601F0DEFBDDE704F13C0522
:103B10006878704710B500F007F800F00AF81CBF8D
:103B2000DFF818108842D9E704460122206800F027
:103B3000ACBA2068DFF82412884270470034014094
:103B400010B5044620680169890715D5C168890741
:103B500012D56FF00201016101212177806910F017
:103B6000030F204602D001F0AFFB03E001F0ADFBF4
:103B700000F087F80020207720680169490715D5F3
:103B8000C168490712D56FF0040101610221217754
:103B9000806910F4407F204602D001F095FB03E0DD
:103BA00001F093FB00F06DF8002020772068016998
:103BB000090715D5C168090712D56FF00801016121
:103BC00004212177C06910F0030F204602D001F0D4
:103BD0007BFB03E001F079FB00F053F80020207735
:103BE00020680169C90615D5C168C90612D56FF0EC
:103BF0001001016108212177C06910F4407F20463F
:103C000002D001F061FB03E001F05FFB00F039F846
:103C10000020207720680169C90708D5C168C90755
:103C200005D56FF0010101612046FEF720FA2068FA
:103C30000169090608D5C168090605D56FF080013C
:103C40000161204601F042FB20680169490608D560
:103C5000C168490605D56FF040010161204601F0B9
:103C600036FB2068016989060AD5C168890607D52F
:103C70006FF0200101612046BDE8104001F028BB33
:103C800010BD204601F025BB70B5064606F13C0488
:103C90000D462078012801D1022070BD00F058F8AF
:103CA00032B1042A14D0082A24D00C2A32D042E09F
:103CB000306800F0FAF83068816941F0080100F0DE
:103CC00043F821F0040100F03FF82A6911430FE0A6
:103CD000306800F014F93068816941F4006100F047
:103CE00033F821F4806100F02FF82A6941EA0221BB
:103CF000816120E0306800F032F93068C16941F03C
:103D0000080100F01DF821F0040100F019F82A69FB
:103D100011430FE0306800F054F93068C16941F494
:103D2000006100F00DF821F4806100F009F82A69C3
:103D300041EA0221C161012060700020207070BD45
:103D4000C1613068C16970478161306881697047BD
:103D5000012020700220607070470000002C01409C
:103D600038B500F05BF801D1022032BDFFF7F0FF5B
:103D7000DFF89432286882681A4082600868002858
:103D800037D0102837D0202837D0302837D04028D7
:103D90002BD050281ED0602820D070280BD0B0F532
:103DA000805F03D0B0F5005F0CD02CE028688168FC
:103DB000C908C9000CE000F02CF82868816841F0BF
:103DC000770105E000F025F82868816841F480411A
:103DD000816018E000F019F8502111E0CA684968C4
:103DE000286800F02EF960210AE000F00EF840216A
:103DF00006E0002104E0102102E0202100E0302153
:103E0000286800F030F90FE00000CA6849682868A7
:103E100006E1CB684A68896828682CE1054605F107
:103E20003C04207801287047012060700020207039
:103E300032BDF0B5754B764A0468764D764E774FB5
:103E4000984218BF904208D0B0F1804F18BFB842D6
:103E500003D0B04218BFA8420FD1D1F804C0984295
:103E600024F0700418BF90424CEA040407D0B0F16B
:103E7000804F1CBFB842B04201D0A84203D1CD68E8
:103E800024F440742C434D6924F080042C430460D6
:103E900098428C68C4620C68846212BF90420969BF
:103EA000016301214161F0BD0000F0B5026A574E87
:103EB000520852000262046A4268836900F07BF88B
:103EC00024F002042C43524DB04218BFA84207D13F
:103ED000CF6824F008043C43B04224F0040401D02D
:103EE000A84205D14D6922F440722A438D692A43C4
:103EF00042608361496841630462F0BD0000F0B52F
:103F0000026A424E22F010020262B042046A426823
:103F100083690D6823F4E64343EA05238D6824F0A2
:103F2000200444EA05143A4D18BFA84208D1CF68CE
:103F300024F0800444EA0714B04224F0400401D085
:103F4000A84206D14D698E6922F44062354342EAA7
:103F5000850242608361496881630462F0BDF0B507
:103F6000026A2A4E22F480720262046A4268C369BD
:103F700000F021F824F4007444EA0524244DB042F2
:103F800018BFA84208D1CF6824F4006444EA07248B
:103F9000B04224F4806401D0A84206D14D698E69F4
:103FA00022F44052354342EA05124260C361496837
:103FB000C1630462F0BD0D6823F073032B438D6869
:103FC000704730B5026A22F480520262026A436886
:103FD000C4690D6824F4E64444EA05248D6822F49B
:103FE000005242EA0532094DA8421CBF084DA842C2
:103FF00004D14D6923F4804343EA85134360C461CF
:1040000049680164026230BD8800FFFF002C014056
:1040100000340140000C0040000800400004004053
:1040200010B5036A046A640864000462846924F0B9
:10403000F00444EA0212826123F00A021143016291
:1040400010BD10B5036A23F0100303628369046A8C
:1040500023F4704343EA0232826124F0A00242EA70
:104060000111016210BD826822F07002114341F01B
:1040700007018160704710B5846824F47F442143B0
:10408000114341EA0321816010BD10B5036A012488
:104090008C40A343036202FA01F1036A19430162EF
:1040A00010BD000010B5FFF71FF8044C01280CBF2D
:1040B00044F620600020206010BD00BF380400409E
:1040C0002DE9F04F8BB008460A23192203A9FEF709
:1040D000AFFC002400260027A046002003A9095CAD
:1040E0002C2902BF761C022E0746401C1928F5DB3E
:1040F00003A83844411C052201A8FDF7AFF901AE21
:1041000032799DF80450DFF8BCA2DFF8BCB2A2F10E
:10411000300000900A277078642107FB00F92D2DEC
:10412000AA4823D12E2A0CD1B37872787B4301FBA5
:104130000231F278511840184042FDF787FB0446DF
:104140008846F0782E2825D1B0784844A0F5047030
:10415000FDF77CFB00F046F800F049F822464346A4
:10416000FDF7DAFE044681F0004813E0F2782E2ACB
:1041700010D1B27801FB059151184018FDF766FB8C
:1041800000F030F800F033F822464346FDF7C4FE55
:1041900004468846B0782E281FD1707807FB0500AA
:1041A000A0F50470FDF752FB0446F0780D46303858
:1041B000FDF74CFB00F01BF822462B46FDF7ACFE4A
:1041C000044600980D46FDF741FB00F0F6F8224644
:1041D0002B46FDF7A1FE04468846204641460BB01B
:1041E000BDE8F08F044600988846FDF72FBB524685
:1041F0005B46FDF703BC2DE9F04F87B0044602A8EB
:10420000142100F001F94FF4FA73132202A9204699
:10421000FEF70EFC0028F6D102AE03E0022818BF1C
:104220000C2802D0315C30393154401C1328F5DBA6
:104230009DF808007178DFF89881DFF89891DFF831
:1042400098A1DFF898B10A2707FB0010FDF7FEFAE6
:1042500004469DF80B0000F089F800F0AAF800F081
:104260008EF804469DF80C0000F080F800F0A5F8E8
:1042700000F085F804469DF80D0000F077F800F096
:1042800094F800F07CF804469DF80E0000F06EF8FB
:1042900000F085F800F073F804469DF80F0000F078
:1042A00065F800F076F800F06AF804469DF8100012
:1042B00000F05CF800F069F800F061F80446484846
:1042C0000D46C0E90045B27A9DF8110064217A4399
:1042D00001FB00209DF813100818FDF7B7FA0646F9
:1042E0009DF8150000F03FF800F063F800F041F889
:1042F00006469DF8160000F036F800F05EF800F073
:1043000038F806469DF8170000F02DF800F04DF83B
:1043100000F02FF806469DF8180000F024F800F091
:104320003EF800F026F806469DF8190000F01BF84C
:1043300000F02FF800F01DF806469DF81A0000F076
:1043400012F800F022F800F014F8264ACDE9000136
:10435000C2E9000122462B460FF2A40000F058F8F3
:1043600007B0BDE8F08F0F46FDF77ABA0D46FDF7AE
:1043700077BA02460B4630463946FDF7CDBD0246B8
:104380000B4620462946FDF7C7BD174A174BFDF7D8
:1043900035BB02460B4650465946FDF72FBB024639
:1043A0000B4640464946FDF729BB114A114BFDF724
:1043B00025BB044A044BFDF721BB0F4A0F4BFDF709
:1043C0001DBB00009A9999999999B93F30EBFFFF6D
:1043D0002D431CEBE2361A3FF168E388B5F8E43E62
:1043E000C0090020B00900208DEDB5A0F7C6B03E91
:1043F000FCA9F1D24D62503F7B14AE47E17A843F75
:1044000067256C66256C6600002200F063BF000023
:104410000EB400B582B003A9009102466B4601219B
:10442000034878440A30FBF783FE06BC5DF810FBB6
:104430009113000038B50FB4DDE9020100F063FF0D
:104440000546DDE9000100F05EFF0246012DB8BF20
:10445000012A2CDA0198002807D5DDE9000181F056
:104460000041CDE90001082400E000240398002861
:1044700007D5DDE9020181F00041CDE9020184F0B8
:104480000604DDE90201DDE90023FDF7FDF802D2B3
:10449000FDF786FB27E0002D06D5DDE90001DDE90B
:1044A0000223FDF77DFB20E0002000211DE0022A11
:1044B00008BFDDE900011ED0022D08BFDDE90201C1
:1044C00019D09542019B07BF00200C490020002114
:1044D000002B039B4CBF08240024002B48BF84F012
:1044E0000604012A01D184F00204224605B0BDE889
:1044F000304000F021BF05B030BD00BF0000F03FEC
:104500002DE9F8430446DFF868542078C00747D502
:10451000686800F00C00042807D0686800F00C0000
:1045200008280AD16868C00307D52868800337D5F2
:104530006068002834D1012049E16068B0F5803F0F
:1045400009D008B928680AE0B0F5A02F286806D17C
:1045500040F480202860286840F4803005E020F492
:1045600080302860286820F480202860606858B176
:1045700000F05EFD07462868800311D400F058FD66
:10458000C01B6528F7D31FE100F052FD07462868DD
:10459000800305D500F04CFDC01B6528F7D313E15F
:1045A0002078DFF8D863800718D5686810F00C0F02
:1045B00007D0686800F00C00082825D16868C0039F
:1045C00022D42868800702D520690128B3D1286841
:1045D000616920F0F80040EAC100286020780007F7
:1045E0003ED5A169DFF89803002965D0012101605B
:1045F00000F01EFD0746686A800722D400F018FD0F
:10460000C01B0328F7D3DFE0206968B101203060C8
:1046100000F00EFD074628688007D8D400F008FD9A
:10462000C01B0328F7D3CFE0306000F001FD074640
:1046300028688007D2D500F0FBFCC01B0328F7D305
:10464000C2E0DFF830030068C0084FF47A71B0FBB5
:10465000F1F0009000BF0098411E00280091F9D1B0
:10466000207840076FD5E869C0004FF000080AD4F1
:10467000E86940F08050E8614FF00108E86900F017
:10468000805000900098DFF8FC92D9F80000C00537
:104690001FD4D9F8000040F48070C9F8000000F081
:1046A000C7FC0746D9F80000C00512D400F0C0FCD2
:1046B000C01B6528F6D387E0016000F0B9FC07460F
:1046C000686A8007CCD500F0B3FCC01B0328F7D381
:1046D0007AE0E068012808D008B9286A09E00528CE
:1046E000286A06D140F004002862286A40F00100E0
:1046F00005E0400840002862286A20F00400286293
:1047000041F28939E06858B100F092FC0746286A06
:10471000800711D400F08CFCC01B4845F7D353E050
:1047200000F086FC0746286A800705D500F080FC6B
:10473000C01B4845F7D347E0B8F1000F03D0E86944
:1047400020F08050E861E06900283FD0696801F0FE
:104750000C0108293FF4EFAE02282AD100F039F805
:1047600007462868800105D500F062FCC01B0328BD
:10477000F7D329E0206AB0F5803F05D16868A168C9
:1047800020F40030084368606868216A20F47410DF
:104790000843616A08436860012000F01BF807467F
:1047A0002868800112D400F043FCC01B0328F7D313
:1047B0000AE000F00EF807462868800106D500F0F0
:1047C00037FCC01B0328F7D3032000E00020BDE81E
:1047D000F2830020306600F02BBC2DE9F8436A4ECE
:1047E00004463068884600F00700404502D200F0D9
:1047F00079F852D120785E4F800705D57868A16896
:1048000020F0F000084378602078C0073DD560684C
:10481000012802D13968890303E00228396802D1EE
:10482000890102D439E0890737D57968890840EAD7
:104830008100786041F2893900F0FAFB0546606832
:1048400001280AD1786800F00C0004281DD000F07F
:10485000EFFB401B4845F5D315E002280AD17868E4
:1048600000F00C00082810D000F0E2FB401B484587
:10487000F5D308E0786810F00C0F06D000F0D8FBF4
:10488000401B4845F6D303202AE0306800F00700BB
:10489000804504D200F026F801D0012020E02078E5
:1048A000400705D57868E16820F4E0600843786047
:1048B0002078000706D57868216920F4605040EA26
:1048C000C100786000F018F87A683049C2F303122A
:1048D000895CC84027490860002000F0D1FC002016
:1048E000BDE8F2833068C00848EAC0003060306834
:1048F00000F007004045704710B586B001A80FF2E0
:104900009C011022FCF7BAFD0FF2A000204900889C
:10491000ADF800000A68184802F00C03082B10D10B
:1049200001ABC2F38344D2031B5D08D50968C1F310
:10493000404158431DF80110B0FBF1F001E015486B
:10494000584306B010BD0B48006870470948104A2C
:10495000006812681049C2F3022206E005480C4ABA
:10496000006812680C49C2F3C222895CC8407047D3
:1049700000100240F800002000127A0000004242BD
:104980008004424200700040002002408856000827
:104990000410024000093D0000580008020304050D
:1049A000060708090A0B0C0D0E0F1010010200007B
:1049B0002DE9F041044682B02078664DC00750D5FD
:1049C000A8690026C00009D4A86940F08050A861F9
:1049D0000126A86900F08050009000985E4F38686A
:1049E000C00510D4386840F48070386000F020FBB7
:1049F00080463868C00506D400F01AFBA0EB08001A
:104A00006528F6D320E0E86910F440701EBF6168A5
:104A100001F44071884219D05049E86901220A60C6
:104A200020F4407000220A60E861C0070ED500F053
:104A3000FFFA0746E869800708D400F0F9FAC01BBE
:104A400041F289318842F5D303201DE0E8696168AD
:104A500020F440700843E8611EB1A86920F080503E
:104A6000A8612078800705D52868A16820F4404017
:104A7000084328602078C00605D52868616920F4BD
:104A80008000084328600020BDE8F68130B585B07D
:104A9000054601A80FF2D401314C1022FCF7EEFCC0
:104AA0000FF2D8000088ADF800000020012D26D0BC
:104AB000022D44D0042D18BF082D1DD0102D47D134
:104AC00061682268D20143D501A8C1F38342C903BA
:104AD000805C09D56168234AC1F340411DF801108B
:104AE000B2FBF1F1484301E01F49484361684902C4
:104AF0002ED44000032129E0FFF7FEFE28E0216AC2
:104B000040F202320A40B2F5817F08BF4FF4004004
:104B10001ED001F44072B2F5007F05D1616A8907A9
:104B200016D549F6404013E001F44071B1F5407FDD
:104B30000ED1216889030BD54FF2244008E0FFF71E
:104B40000DFF6168C1F38131491C4900B0FBF1F0F0
:104B500005B030BD041002400070004040044242E5
:104B60000010024000127A0000093D000203040513
:104B7000060708090A0B0C0D0E0F101001020000A9
:104B80000901002806D52E4A00F00F00104400F855
:104B9000041C70472B4A115470472B490A684FF682
:104BA000FF0300021A4000F4E0601043274A10435C
:104BB0000860704738B5244B1B68C3F30223C3F168
:104BC0000704052C28BF04241D1D072D34BF002316
:104BD000DB1E012505FA04F4641E2140994005FA04
:104BE00003F35B1E1A401143BDE83440C8E70121BE
:104BF00000F01F029140164AFFE7400942F82010DA
:104C0000704710B5401EB0F1807F01D3012010BD68
:104C1000104C60600F214FF0FF30FFF7B1FF002014
:104C2000A06007202060002010BD0A490428086801
:104C30000CBF40F0040020F0040008607047000042
:104C400018ED00E000E400E00CED00E00000FA05E3
:104C500000E100E010E000E000F000B87047000064
:104C6000D960002180F83C10002010BD10B590F8EC
:104C70003C20012A01D1022010BD012280F83C20F5
:104C8000CB688C688A6923F4407323434C6823F40F
:104C9000806323430C6823F4006323430C69496950
:104CA00023F48053234323F40053194321F4804118
:104CB000114321F40041114302685164D1E730B53A
:104CC00000F13C021378012B01D1022030BD0123F9
:104CD00013700223537003685C6824F070045C60F6
:104CE00003685C680D682C435C6003689C6824F072
:104CF00080049C60006883684968194381600120D2
:104D000050700020107030BD80B5DFF8EC020168F3
:104D100041F001010160016801F001010091009979
:104D2000416841F080514160406800F0805000903F
:104D300000980320FFF731FF002200216FF00B00E5
:104D4000FFF738FF002200216FF00A00FFF732FF63
:104D5000002200216FF00900FFF72CFF0022002144
:104D60006FF00400FFF726FF002200216FF0030020
:104D7000FFF720FF002200216FF00100FFF71AFF6C
:104D8000002200214FF0FF30FFF714FF9B4801681D
:104D900021F0E06141F08061016001BD0068984947
:104DA000884200D0704700B5934885B0016841F44F
:104DB0000071016001A9006800F400700090009883
:104DC00002200190032002908E48FEF7C9F805B03A
:104DD00000BD00688C49884200D0704710B58B48F0
:104DE0008B4C86B0016841F00071016001A9006838
:104DF00000F00070009000984FF48070019000F077
:104E0000DEF84FF40070019001A900F0E6F87B484D
:104E1000016821F4C04141F0E06141F4804101604A
:104E2000002200211320FFF7C5FE1320FFF7DFFE4D
:104E3000002200211420FFF7BDFE1420FFF7D7FE4B
:104E400006B010BD80B50068724A6B49904207D128
:104E5000086840F400600860086800F4006009E039
:104E60006D4A904209D1486840F0020048604868A5
:104E700000F002000090009801BD684A904212D1F3
:104E8000486840F0200048600022486800F0200098
:104E90000090002100983720FFF78CFEBDE802400B
:104EA0003720FFF7A4BE01BD00B585B00168594A9F
:104EB0005448914204D14FF4807100F014F80EE090
:104EC000554A91420DD1C02100F00DF8FEF748F887
:104ED0000320009069460220019003904C48FEF7A1
:104EE0003FF805B000BD0091022101910391694690
:104EF000704730B585B00068494A404C3E49904201
:104F00001DD10868424D40F480400860086800F4F4
:104F10008040009001A90098402000F056F88020C1
:104F200000F062F8206840F0E06040F0040020608B
:104F3000002200212520FFF73DFE25201CE0394AF4
:104F400090421CD148682F4C40F4003048604868BB
:104F500000F40030009001A900980420019000F0B6
:104F60003CF80820019001A900F029F80022002156
:104F70002620FFF71FFE2620FFF739FE1DE02A4AF4
:104F800090421AD14868294D40F480204860486812
:104F900000F48020009001A900984FF4806000F098
:104FA00014F84FF4006000F01FF8206820F0300083
:104FB00040F0E06040F01000206005B030BD0020FF
:104FC000029003902046FDF7CBBF01900220029093
:104FD000032004902846FDF7C3BF0220029003205F
:104FE00004902046FDF7BCBF019001A9002002906B
:104FF00003902846FDF7B4BF18100240040001409A
:105000000024014000080140006400401C100240E0
:10501000000C0140002C014000040040001400403E
:1050200000380140004400400048004000100140AA
:1050300001484068704700BFEC000020F8B590F8C8
:1050400021200024022A00F1340103D0042048600A
:10505000012462E00268DFF8CC70136823F00E03CD
:1050600013604FF48055026813685B085B0013609F
:105070004FF480320368BB424FF4807619D3DFF8D7
:10508000A070BB4208BF012210D0DFF89C70BB4269
:1050900008BF10220AD0DFF89470BB4208BF324626
:1050A00004D0DFF88C60B34208BF2A46DFF88430B2
:1050B00029E0DFF88470BB421ED0DFF88070BB426D
:1050C0001CD0DFF87C70BB421AD0DFF87860B342A6
:1050D0000EBF2A46DFF87050AB4212D0DFF86C509A
:1050E000AB4208BF4FF480120BD0DFF86450AB42E4
:1050F00007D14FF0807204E0012202E0102200E0AC
:105100003246DFF850301A60012280F8212080F802
:10511000204009680A0018BF88472046F2BD0000F9
:1051200008040240810002401C0402403004024096
:105130004404024004040240080002401C000240F3
:105140003000024044000240580002406C0002401F
:1051500080000240040002407047704700684449E4
:10516000884200D07047F8B5424E434C3778A0696A
:10517000E169226A2369414D612F48D0642F3FD0F5
:10518000652F53D0692F59D0702F6AD0712F47D017
:10519000732F21D0742F5BD0772F08BF002B62D1E3
:1051A000401C0B28A8BF0A20A06100F0B5F9A06937
:1051B0002168401E31B9A0614FF4FA6028600120D7
:1051C00020604BE0A168002948D1A06140F2DC508A
:1051D00028600120A06041E0002B44D1401E48BF60
:1051E0000020A06100F098F96068002836D1A0691D
:1051F000401CA0614FF47A702860012060602DE0AF
:105200008BBB481C0B28E06107DB0A2004E053BB82
:10521000481EE06101D50020E06100F094F91DE036
:10522000501C0928206206DB082003E0501E206283
:1052300001D50020206200F0B1F90FE0606901287B
:1052400002DB00206061F1BD401C606106A003E04C
:105250004BB90120E06005A0FFF7DAF800203070BC
:10526000F1BD01206062F1BD690000005400000042
:1052700000380140D8090020FC0000203C04004018
:1052800038B50D4D297804464FF47A70B0FBF1F033
:105290000A490968B1FBF0F0FFF7B3FC50B9102CD4
:1052A00008D2002221464FF0FF30FFF783FCAC60AC
:1052B000002032BD012032BDEC000020F8000020AB
:1052C0007047704770477047704770477047704726
:1052D0007047704700B500BF1300964694461039DA
:1052E00028BFA0E80C50FAD85FEA417C28BF0CC068
:1052F00048BF40F8042BC90728BF20F8022B48BF3D
:1053000000F8012B00BDC1F30A5240F2FF739A422C
:105310000AD012B14FF0FF307047C1F313010843B8
:1053200009D06FF001007047C1F31301084301D0A9
:1053300002207047012070472DE9F04D1746504A72
:10534000504BFCF7B9F904460D461CD84E4EDFF819
:105350003C8132464346FCF751FB00224C4BFCF7A4
:10536000DBFD82468B463246434620462946FCF703
:10537000D3FD02460B4650465946FCF711FC044645
:105380000D4647F00107204629460022414BFCF715
:105390007BF905D301224FF07953FCF78DF953D8EF
:1053A00022462B46FCF72AFB0646884632464346F1
:1053B00020462946FCF722FB82468B463648374971
:1053C00032464346FCF71AFB354A364BFCF7A4FD40
:1053D00032464346FCF712FB334A344BFCF79CFD44
:1053E00052465B46FCF70AFB22462B46FCF794FD2F
:1053F00004460D462E482F4932464346FCF7FEFA36
:105400002D4A2E4BFCF788FD32464346FCF7F6FA50
:105410002B4A2C4BFCF780FD32464346FCF7EEFA54
:10542000294A2A4BFCF778FD32464346FCF7E6FA58
:105430000022274BFCF770FD02460B46204629460A
:10544000FCF7AEFB04460D46B80748BF85F00045A3
:1054500017F007000BD00FF2800101EBC0022B46C2
:10546000D2E900012246FCF757FD04460D463807F5
:1054700047BF85F00041204620462946BDE8F08D13
:1054800057CD9E5E1426D13FAA4C58E87AB6FB3F12
:105490000000F0BF000040BE845D57134B57B03F83
:1054A000B2934C19ED5EE43FBEDE02B90240F83F14
:1054B000DE39028FC7C0743F8AAB1283000CC83F2D
:1054C00024D7E508B6D8F03F0F34580E5895FD3F65
:1054D0000000F03F0000000000000000000000009D
:1054E00066732D3852C1E03F182D4454FB21F93F1B
:1054F00066732D3852C1F03F182D4454FB21F93FFB
:1055000066732D3852C10040182D4454FB210940C8
:105510003FD038C6A6F1044016481749026851F832
:105520002210134A11601549096800291EBF144949
:105530000968002906D01349096819B101680AA051
:10554000FEF766BF704710481049026851F82210F4
:105550000F4A116001680A2934BF0FF2380003A016
:10556000FEF756BF00000000732564006425640048
:105570003C04004014010020A0000020FC0000209A
:10558000000100200401002018010020C0000020BC
:1055900034040040643025640000000006480749D8
:1055A000026851F82210064A1160016801A0FEF756
:1055B0002FBF0000442564001C01002000000020D3
:1055C000342C0140F0B4016844688368014401EB65
:1055D0005402E40748BF4B44914202D1F0BC0C3066
:1055E000704711F8015B15F0030604BF11F8014B79
:1055F000E61C2C090F2C07D111F8014B0F3403E0E6
:1056000011F8017B03F8017B761EF9D1002CE3D061
:10561000AD0811F8016B05F00305032D08BF11F863
:10562000015B06EB05256D42A41C1D44D4D015F882
:10563000016B03F8016B641EF9D1CDE70E480F4AE8
:10564000016841F0010101604168114041600C4A6C
:10565000016811400160016821F480210160416806
:1056600021F4FE0141604FF41F0181604FF00060A2
:105670000449086070470000001002400000FFF875
:10568000FFFFF6FE08ED00E0000000000000000053
:1056900001020304060708097047FEE7FEE7FEE77C
:1056A000FEE770477047704780B500F01BF8BDE813
:1056B0000140FFF7D1BA00E000BF0648FEF74DB841
:1056C0000548FDF74DBA0548FDF74ABA0448FEF70C
:1056D00037BA0000A40800206C0A0020E808002067
:1056E00068090020024841680278511841607047FB
:1056F000EC00002019E050F8041BCB0744BFA9F1CF
:1057000001035918121F0023042A41F8043BF9D25F
:105710005FEA827C0B4604D54FF0000CA1F800C074
:105720009B1CD10744BF0021197050F8042B002A9C
:10573000E1D1704710B5074979441831064C7C44D3
:10574000163404E00A68081D114488470146A14246
:10575000F8D110BD080000002400000099FFFFFFF1
:1057600058020000600800200000000059FEFFFF02
:1057700074010000000100000000002000F00BF8A0
:10578000002801D0FFF7D6FF0020C046C046FCF736
:1057900087FC00F002F80120704700F001B800001B
:1057A0000746384600F002F8FBE7000080B5C04627
:1057B000C046024A11001820ABBEFBE726000200DB
:1057C00038B504460D46284600F006F8A84218BF32
:1057D0000024204632BD00000149FCF713BC00BF85
:1057E0002401002001488047014800473D56000839
:1057F000F5570008C046C046C046C046FFF7BEFF8A
:105800000000000001020304FFF7FEBFFFF7FEBF28
:10581000FFF7FEBFFFF7FEBFFFF7FEBFFFF7FEBFBC
:10582000FFF7FEBFFFF7FEBFFFF7FEBFFFF7FEBFAC
:10583000FFF7FEBFFFF7FEBFFFF7FEBFFFF7FEBF9C
:10584000FFF7FEBFFFF7FEBFFFF7FEBFFFF7FEBF8C
:10585000FFF7FEBFFFF7FEBFFFF7FEBFFFF7FEBF7C
:10586000FFF7FEBFFFF7FEBFFFF7FEBFFFF7FEBF6C
:10587000FFF7FEBFFFF7FEBFFFF7FEBFFFF7FEBF5C
:10588000FFF7FEBFFFF7FEBFFFF7FEBFFFF7FEBF4C
:10589000FFF7FEBFFFF7FEBFFFF7FEBFFFF7FEBF3C
:1058A000FFF7FEBFFFF7FEBFFFF7FEBFFFF7FEBF2C
:1058B000FFF7FEBFFFF7FEBFFFF7FEBFFFF7FEBF1C
:1058C000FFF7FEBFFFF7FEBFFFF7FEBFFFF7FEBF0C
:1058D000FFF7FEBFFFF7FEBFFFF7FEBFFFF7FEBFFC
:1058E000FFF7FEBF10034C040000B00410031405C2
:1058F0000000780412DC04100340060000A404F049
:105900000564080700006C070001218821015291FD
:105910009443270698125904127204528BA4F00281
:1059200013F2030000C412C6045201CB221008F087
:105930000107A24A04DA2128217F6121800C020498
:105940000101DC0900202C0A0020DC09041003619D
:105950000100204804F52B2252FF01F11344412C91
:04596000F29C0001B4
:04000005080057F5A3
:00000001FF
