:020000040800F2
:1000000050050020413B0008593A00085B3A0008BF
:100010005D3A00085F3A0008613A000800000000FD
:10002000000000000000000000000000633A00082B
:10003000653A000800000000673A0008693A0008C5
:10004000653B0008693B00086D3B0008713B0008F8
:10005000753B0008793B00087D3B0008813B0008A8
:10006000853B0008893B00088D3B0008913B000858
:10007000953B0008993B00089D3B0008A13B000808
:10008000A53B0008A93B0008AD3B0008B13B0008B8
:10009000B53B0008B93B0008BD3B0008C13B000868
:1000A000C53B0008C93B0008CD3B0008D13B000818
:1000B000D53B0008D93B0008DD3B0008E13B0008C8
:1000C000E53B0008E93B0008ED3B0008F13B000878
:1000D000F53B0008F93B0008FD3B0008013C000827
:1000E000053C0008093C00080D3C0008113C0008D4
:1000F000153C0008193C00081D3C0008213C000884
:10010000253C0008293C00082D3C0008313C000833
:10011000353C0008393C00083D3C0008773A0008AF
:10012000413C0008453C0008493C00084D3C0008A3
:100130002DE9F04F82460FF24860A5B015461E46E5
:10014000D0E90023CDE91223002004910D900DF198
:1001500050086FF0004900E03D440020ADF8020077
:1001600012AB4FF0FF3229460DF1020001F0A5F865
:100170000746012F04DA2878471EBF41FF43FF0FCF
:10018000BDF8020025280CBFA7F1010BBB46BBF14F
:10019000010F0EDB2C4614F8011B0498D0470028F1
:1001A000049000F0F3800D98401CBBF1010B0D9002
:1001B000F1D1BDF80200252807D100200790089052
:1001C00009900A900B900C9005E00028C4D10D987E
:1001D000DEE240F0010015F8011F2029F9D02329A3
:1001E0000DD02B2904D02D2906D030290AD00CE0BF
:1001F00040F0020080B2EEE740F00400FAE740F081
:100200000800F7E740F01000F4E72A290ED1316822
:10021000316051F8042B3160002A0F9204D551420D
:1002200040F004000F9180B26D1C11E000210F918D
:1002300009E00F99494505D001EB810302EB430129
:1002400030390F916D1C2A78A2F130010A29F0D3C0
:1002500029782E2903D04FF0FF310E911DE015F8BB
:10026000011F2A2907D1316831606D1C51F8042B18
:1002700031600E9211E000210E9109E00E9949457E
:1002800005D001EB810302EB430130390E916D1C67
:100290002A78A2F130010A29F0D3ADF840000FF21C
:1002A000E840297801F01AF808B115F8010B8DF82B
:1002B00042009DF84200682802BF29786829622020
:1002C00005D06C2804BF28786C2803D171208DF8E4
:1002D00042006D1C14A8069015F8017BB7F12500AB
:1002E0002AD01C3800F0DB80001F022840F2D780A3
:1002F000133800F0FC80093800F0D180801E00F037
:100300006781401E00F03D81401E022840F2C780F8
:10031000001F00F03681401F00F09280401E00F068
:10032000E680401E35D0C01E0BD0801E00F0DF805E
:10033000C01E00F0DC806EE125208DF85000012009
:1003400073E19DF842006C283068306014D050F89A
:10035000044B306005940E9F002F04D5204600F01A
:10036000C9FF074606E03A460021204600F0DEFFBE
:1003700000B1071B089759E150F8042B306002A91F
:10038000504600F03FFA002840F150814FF0FF3016
:10039000FEE131683160002251F8040B3160002128
:1003A000CDE9020114A80590DDE902019142069F02
:1003B00008BF90424FF03C0C01D10E9AC2B100F040
:1003C0000F033033DBB23A2BA8BF2733ACF1010265
:1003D0000009BB54944640EA017009090022914289
:1003E00008BF904204D0059A07EB0C039A42E6D36B
:1003F00007EB0C000590CCF13C010E98089181426E
:1004000009DA401A0A904FF6EF71BDF84000084033
:10041000ADF840000AE1002840F108819DF8400055
:1004200000F01400102840F001810F98079A801AFC
:100430000A9A801A401A0128C0F2F8800A90F5E062
:100440009DF8420062281AD0682806D06A280CD08D
:100450006C281CD0712808D019E03068306050F842
:10046000041B30600D980880E0E03068306050F880
:10047000042B30600D98C117C2E90001D6E0306846
:10048000306050F8041B30600D980870CEE0306882
:10049000306050F8041B30600D980860C6E030688A
:1004A000C01D20F007023260D2E90001083232603C
:1004B000CDE90201002902D507982D210AE0BDF8F7
:1004C0004000810702D507982B2103E0C00705D51E
:1004D0000798202108F80010401C079014A80799DD
:1004E00008440590394602A800F098FB9EE09DF86C
:1004F00042006C280DD0712818BF6A2809D13068D5
:10050000C01D20F007023260D2E9000108323260DB
:1005100005E03168316051F8040B31600021CDE90C
:1005200002019DF84200682803D1DDE9020180B292
:100530000BE0622803D1DDE90201C0B205E07428B6
:1005400018BF7A2804D1DDE902010021CDE90201BA
:100550009DF84000000732D5DDE9022300208342E8
:1005600008BF82422BD047F02000782827D1079877
:10057000302108F80010401C411C079108F8007059
:100580001DE09DF84200314600F005F9CDE9020179
:10059000DDE9022300218B4202DA07982D210AE0CF
:1005A000BDF84000810702D507982B2103E0C00762
:1005B00005D50798202108F80010401C079014A8C2
:1005C000079908440590394602A800F0A1FA2DE0E9
:1005D0009DF842006C2809D00120079030683060F7
:1005E00050F8041B30608DF850101FE03068306008
:1005F00001AA50F8041B3060ADF804100020ADF8DB
:10060000060002A94FF0FF300E90504600F0FAF8B5
:1006100000280BD5BAE625208DF850000120079060
:10062000380003D088F80170022007900F980799CE
:10063000401A0A99401A0899401A0B99401A0999C8
:10064000401A0C99471A9DF84000400710D420200A
:10065000012F8DF800000BDB3C4601236A4602A9FE
:10066000504600F005FE00287FF490AE641EF4D1E1
:10067000DDF81CB0BBF1000F14AC0DD014F8011B59
:100680000498D047002804903FF480AE0D98401C99
:10069000BBF1010B0D90F1D130208DF800000A9CC8
:1006A000012C0ADB01236A4602A9504600F0E0FD56
:1006B00000287FF46BAE641EF4D1DDF820B0059CF9
:1006C000BBF1000F0DD014F8011B0498D04700288F
:1006D00004903FF45BAE0D98401CBBF1010B0D90F4
:1006E000F1D130208DF800000B9C012C0ADB012396
:1006F0006A4602A9504600F0BBFD00287FF446AED2
:10070000641EF4D105980899DDF824B04418BBF1B3
:10071000000F0DD014F8011B0498D0470028049056
:100720003FF434AE0D98401CBBF1010B0D90F1D19C
:1007300030208DF800000C9C012C0ADB01236A4656
:1007400002A9504600F094FD00287FF41FAE641EFD
:10075000F4D19DF8400040077FF5FFAC2020012F29
:100760008DF80000FFF6F9AC01236A4602A9504655
:1007700000F07EFD00287FF409AE7F1EF4D1ECE48A
:100780000000000000000000686A6C747A4C0000F1
:1007900025B0BDE8F08F622826D068281DD06A28D1
:1007A00008D06C2827D0712804D0742823D07A2848
:1007B0000CD020E00868C01D20F007000860D0E9D8
:1007C0000023083008601946104670470A680A601E
:1007D00052F8040B0A60002170470A680A6052F858
:1007E000040B0A6000B20BE00A680A6052F8040BBE
:1007F0000A6040B204E00A680A6052F8040B0A601A
:10080000C11770472DE9F44F0D4694B0D5F830A0CC
:10081000BAF1000F804648BF6FF0004A00F0B2FD09
:10082000696B401801900FF67820D0E90023CDE9DC
:10083000022395F83800400702D40198412805D2D8
:1008400040200DF110090190002609E000F0A0FD04
:100850005FEA0009F8D14FF0FF3056E1AAEB040A35
:10086000BAF1010FC0F2CE801498018802AA0DF1EE
:10087000010000F0E5FD0028044600F1DE80149838
:10088000008810B9641E00F1D880A245C0F2BA8079
:10089000686901992218914280F0A2806E634042FB
:1008A000296A401AA969401A696A401AE969401A16
:1008B000A96A461A95F83800400710D42020012E66
:1008C0008DF800000BDB374601236A462946404677
:1008D00000F0CEFC002840F0B0807F1EF4D1D5F8A7
:1008E00014B0BBF1000F4F460DD017F8011BA868DC
:1008F000C0470028A86000F0A080E86A401CBBF157
:10090000010BE862F1D130208DF800002F6A012F31
:100910000ADB01236A462946404600F0A9FC00286C
:1009200040F08B807F1EF4D1D5F818B0EF68BBF192
:10093000000F0CD017F8011BA868C0470028A8605A
:100940007BD0E86A401CBBF1010BE862F2D1302099
:100950008DF800006F6A012F09DB01236A462946E2
:10096000404600F085FC002867D17F1EF5D1E8687D
:10097000A969D5F81CB04718BBF1000F0CD017F8C7
:10098000011BA868C0470028A86056D0E86A401C30
:10099000BBF1010BE862F2D130208DF80000AF6AA4
:1009A000012F09DB01236A462946404600F060FC1E
:1009B000002842D17F1EF5D195F8380040070DD5AB
:1009C0002020012E8DF8000008DB01236A4629460D
:1009D000404600F04DFC80BB761EF6D100266E61CD
:1009E000224668690DF10101484400F037FD68694D
:1009F000201868611498801C1490801E00880028BC
:100A00007FF42CAF686B6969401A296A401AA9699A
:100A1000401A696A401AE969401AA96AA0EB010AFA
:100A200095F83800400710D4BAF1010F0DDB544699
:100A3000A8682021C047A86010B94FF0FF365DE0DC
:100A4000E86A401C641EE862F2D16B694A46294696
:100A5000404600F00DFC0028EFD12C6A012C0ADB87
:100A6000A8683021C0470028A860E6D0E86A401C8A
:100A7000641EE862F4D1AB69EA682946404600F09A
:100A8000F7FB0028D9D16C6A012C0ADBA868302159
:100A9000C0470028A860D0D0E86A401C641EE86205
:100AA000F4D1E868A969EB6942182946404600F08C
:100AB000DFFB0028C1D1AC6A012C0ADBA868302119
:100AC000C0470028A860B8D0E86A401C641EE862ED
:100AD000F4D195F8380040070ED5BAF1010F0BDBC1
:100AE000A8682021C0470028A860A6D0E86A401C5A
:100AF000BAF1010AE862F3D16E616E6304A8814520
:100B00001CBF484600F0E6FC304615B0BDE8F08F4B
:100B10002DE9F343054608462F696F2808BF0824CE
:100B200005D041F02001782914BF0A2410243C2666
:100B3000D5E90023642818BF69289046994606D154
:100B400000218B4203DAD8F1000869EB4909002043
:100B5000814508BF80450CD1286B50B9082C38D18D
:100B600095F83800000734D530203B2687F83B0045
:100B70002FE0701E00900646404649462246E31785
:100B800000F0E8FC02F13000C0B23A2803DB9DF827
:100B9000041051390818B855494640462246E31713
:100BA00000F0D8FC804689460020814508BF80457A
:100BB00003D0E868B9198842DBD3082C09D195F82D
:100BC0003800000705D5B85D302802D0761E3020E9
:100BD000B855B919E960C6F13C00296BA861884293
:100BE00008DA081A28624FF6EF71288F0840288724
:100BF000BDE8F38300290ED595F8381001F01401F3
:100C0000102908D1696B6A69891A2A6A891A0E1A29
:100C1000012EA8BF2E62BDE8F38300002DE9F24F3C
:100C200004468EB0D4E90001CDE9020104AF9DF87D
:100C3000380040F0200BBBF1610F0AD0206B002878
:100C400048BF062004D408BFBBF1670F01D10120C3
:100C500020636168C1F30A5040F2FF7290421CD1D8
:100C6000080304BF2068002809D10320A0619DF873
:100C7000380061381A2835D30FF2386108E00320B4
:100C8000A0619DF8380061381A2828D30FF21C6142
:100C9000E068032200F0E2FBBDE1012815DA2046FE
:100CA00000F0CFFC012810DB00250020BBF1610F14
:100CB0001FD1E16830220A708A1CE2609DF838205A
:100CC000612A0CBF782258220FE0626840F2FE31A0
:100CD00061F31E52451A62604FF0FF30E6E70FF2F3
:100CE000C851D5E70FF2C851D2E74A706169891C33
:100CF000616110B90026002584E1BBF1610F40F06D
:100D00009880206BD4E900AB00284CBF2126461CFC
:100D1000DDE902010022002300F0B6FC36B23ABF42
:100D20008BF00040CDE902A0CDE902AB06F101084D
:100D30002D1FB8F1010F8DF810200DF1110736DBD2
:100D4000DDE902010022002300F0B6FC2FD21C21B5
:100D500002A800F0C9FCDDE9020100F04BFDA8F19A
:100D60000708B8F1010F814609DB00F06FFD02466C
:100D70000B46DDE9020100F081FDCDE90201F81D1D
:100D8000072105E009F00F0200F8012D4FEA2919AB
:100D9000B9F1010F01DB491EF4D5491E5CBF0022E9
:100DA00000F8012DF9D5C71DB8F1010FC8DA0DF112
:100DB0001100391AB142B8BF0E4636B230000DF1FB
:100DC00011072FD4884206DA04A90144497808297A
:100DD000A8BF0F2100DA002104AA024400E0761E19
:100DE00012F80139401E8B42F9D00F2904D104A911
:100DF00001444A78521C4A70002802D504AF761C80
:100E00002D1D36B2701E0DD439180A783032D2B288
:100E10003A2A03DB9DF838303A3B9A18401E01F815
:100E20000129F2D5206B002840F1EC80701E206370
:100E3000E8E0DDE902010022002300F025FC3CBFD0
:100E400081F00041CDE902012DB247F2975068438D
:100E50004B49DFF8309190FBF1F52DB2C5F1070A4F
:100E6000BAF1010F90461CDBDDE902675FEACA7048
:100E700007D542464B463046394600F0BFFD064690
:100E80000F464046494642464B464FEA6A0A00F042
:100E9000B5FDBAF1000F80468946E7D1CDE902677A
:100EA00024E0CAF1000A0026374F14E05FEACA7056
:100EB00007D542464B463046394600F09FFD064670
:100EC0000F464046494642464B4600F097FD4FEAE2
:100ED0006A0A80468946BAF1000FE7D1DDE90201CE
:100EE00032463B4600F05CFECDE90201BBF1660FE5
:100EF000216BDFF898900CBF05F10A000620461818
:100F0000142EA8BF132630208DF810000DF1110704
:100F1000012E3DDBDDE9020100F082FC07F1080152
:100F200004220A23B0FBF3F303EB8307A0EB470093
:100F3000303001F8010C0A20B3FBF0F000EB800721
:100F4000A3EB47033033521E01F8023DE9D1083EBE
:100F5000012E01F10807DBDBDDE9020100F060FC96
:100F600000F07EFC02460B46DDE9020100F086FC43
:100F700000224B4600F042FDCDE90201CAE700BF66
:100F8000A0860100000024400000F03F84D7974174
:100F90000DF11100381A0DF1110702E0401E6D1E0F
:100FA0007F1C39783029F9D0BBF1660F08BF691C66
:100FB00004D0BBF1650F0CBF01210021226B8E18FC
:100FC00036B2B042B8BF064636B231001AD48142BA
:100FD00004DA785C3528A8BF392000DA30207A1886
:100FE000521E00E0761E12F80139491E8342F9D0E4
:100FF000392802D1785C401C7854002902D57F1E24
:10100000761C6D1C2DB29DF83810009533B23A460F
:10101000204600F003F80FB0BDE8F08F2DE9F0474F
:1010200086B006468A4690461D4600F002FF012D16
:10103000406A376B90F8009002DA01250FF27828A9
:101040004AF02000BDF93840662808BF641C12D061
:10105000672878D114F1040F7BDBBC4279DA96F86B
:101060003800641C000702D4BD42B8BF2F4624B22A
:101070003F1B48BF002724B2F068B169012C23DA76
:101080004A1C30234354012F03DA96F83800000736
:1010900003D5F06800F80290521CE742B8BF7C42CA
:1010A00024B260427062E719AF42B261B8BF3D46F8
:1010B000F068B3692DB2F5612A464146184400F044
:1010C000CDF9781BB062BCE022469542084416DA9E
:1010D0002A46414600F0C2F9B1696918601B012F28
:1010E000B161706203DA96F83800000705D5F06840
:1010F00000F80190F069401CF061B762A1E0414640
:1011000000F0ACF9B06920182D1B012F03DA96F816
:101110003810090703D5F16801F80090401CB06150
:101120002DB2AF42B8BF3D46F068B3692DB22A4632
:1011300008EB0401184400F091F9B0692818B06177
:10114000781B70627DE0BAF1610F14D14FF0700A24
:1011500016E0BD4204DA96F83810090758BF2F464A
:101160007F1E48BF0027BAF1670F14BF4FF0450A32
:101170004FF0650A04E0BAF1410F08BF4FF0500A82
:10118000B169F368481CB061012F18F8012B5A545B
:1011900003DA96F83810090717D5F168431CB361D4
:1011A00001F80090012F10DB6D1E2DB2AF42B8BFC9
:1011B0003D46F0682DB22A464146184400F04EF9EB
:1011C000B0692818B061781B7062F068B169014499
:1011D000200081F800A004D42B20487001F10208FF
:1011E00004E02D224A7001F102086442002502AF9A
:1011F00008E00A22684600F035FE019807F8010B66
:101200006D1C009C21B20129F3DA022D06DA4AF0A6
:101210002000652804BF302008F8010B4DB93020AC
:1012200008F8010B07E06D1E02A8405D303008F899
:10123000010B012DF7DAF068B1690844A8EB000052
:10124000F06196F8380000F0140010280DD1706994
:10125000B1690818716A0818F1690818B16A0818A4
:10126000716B8842BCBF081A306206B0BDE8F087D7
:10127000F8B504460D4616461F46002077B116F80D
:10128000011BA868A047A86030B1E86A401CE8626A
:1012900000207F1EF3D1F2BD4FF0FF30F2BD000001
:1012A00000000000000000006E616E004E414E0024
:1012B000696E6600494E46003000F8B504460D469A
:1012C00016461F4600F0D6FD3B46324629462046CC
:1012D00001B0BDE8F04000F0E4BD00000278C9B202
:1012E0008A421AB11CBF10F8012FF9E718BF00207D
:1012F0007047000000F10103810704D010F8011BC2
:1013000089B18107FAD10268B2F10131914311F03C
:10131000803F04BF50F8042FF6E710F8011B11B10D
:1013200010F8011BFBE7C01A70470000C9B2830721
:1013300006D0521E22D310F8013B9942F7D11FE08C
:10134000083A13D302F1040241EA012141EA0141C2
:1013500050F8043B121F21BF4B40A3F1013C2CEA83
:10136000030C1CF0803FF3D0C9B2001F083210F804
:10137000013B521E28BF91EA030FF8D818BF012085
:10138000401E704780B500F075FD012002BD0000D1
:1013900070B5054605F10F00C408C046C046E4001C
:1013A000A54232D2082C04D2082402E0083000F012
:1013B00091F82248026811000CD1011D0A6802B39D
:1013C0001368A34238BF111DF8D310E01D68A54271
:1013D0000DD2191D0B68002BF8D11268011D00E019
:1013E000191D0B6893420CD01D68A542F8D361B15A
:1013F0000D682A68A2F10803A3420AD26A680A604B
:101400000FE000F071FD0028D0D1C046C04600209A
:1014100070BD2B190B60121B6E685E600B681A6042
:101420002C60096800291DBF4A68002A091D002197
:101430000160C046C04605F1080070BD900800205C
:1014400070B504460D46164600F014FD3246294696
:101450002046BDE8704000F017BD000062B38B0766
:1014600008D0521E11F8013B00F8013B00F0248027
:101470008B07F6D1830740F0208000BF103A07D3D6
:1014800030B4B1E83810103AA0E83810F9D230BCC6
:10149000530724BFB1E80810A0E8081044BF51F872
:1014A000043B40F8043BD20724BF31F8022B20F85C
:1014B000022B44BF0B7803707047083A07D3B1E89A
:1014C0000810083A40F8043B40F804CBF7D2530721
:1014D000E4E7000000B9704738B5A0F108042068BF
:1014E000082833D310F0070F30D1C046C046184843
:1014F000416809B18C4203D26160446017E019462B
:101500004B680BB1A342FAD30B68CD18AC421BD386
:10151000A54204D12268D2180A600C4607E04A6846
:101520001AB1236823449A420ED362604C6061680A
:1015300051B12268A3188B4206D1002303600868CA
:101540008018206048686060C046C04631BD000019
:10155000900800201B4213D1094236D12AB184469B
:10156000B0FBF2F002FB10C2704700F0D3BCFCD31A
:101570000022002370470B0002000021002070476A
:10158000904271EB030CF6D370B5B1FA81F4B3FA63
:1015900083F52C1BA340C4F1200532FA05F6334332
:1015A000A2405FF00046E64002E05B085FEA3202DC
:1015B000841A71EB030524BF204629467641F4D3F3
:1015C00002000B003000002170BD012ACFD970B598
:1015D000140C20D0B1FA81F4B2FA82F5C4F12004DF
:1015E0006419B4F12006D6D3B2405FF00044F44051
:1015F000002502E052085FEA3303C61A71EB020EBF
:1016000024BF3046714664416D41F3D302000B00A4
:101610002000290070BD0C46B1FBF2F102FB114520
:101620002D0445EA1045B5FBF2F402FB145580B2D7
:1016300040EA0545B5FBF2F002FB105240EA0440D7
:1016400070BD30B4436803F000420121C3F31303BB
:101650004360002B04BF0368002B08D10DE0036832
:10166000DD0F45EA440444605B000360491E4468A2
:10167000E302F4D5C4F31303436043681A434260A2
:10168000084630BC704700004FF4001C1CEB410FB3
:1016900094BF1CEB430F09E041EA030C50EA4C0CE9
:1016A00052EA0C0C03D2994208BF9042704714BF13
:1016B0008B428242704700004FF4001C1CEB410F2C
:1016C00094BF1CEB430F09E041EA030C50EA4C0CB9
:1016D00052EA0C0C03D28B4208BF8242704714BFFF
:1016E000994290427047000070B504460D4660680C
:1016F000C0F30A5040F2FF71884207D160680003CE
:1017000004BF2068002817D0022070BD20B92046F1
:10171000FFF797FF012866DA012D0FDB40F2FF711A
:10172000091A8D420AD36068002847BF00202F495C
:1017300000202F49C4E90001012070BD4142A942A7
:10174000616806DA6FF31E51401941EA005060608B
:1017500040E0401E63684519012205F1350062F33F
:101760001F53352801F00041636003D361600020FE
:10177000206070BD002015F11F0F04DA206823607F
:101780000022203562606A4212D0401E25688041E6
:10179000C2F12003C0439D4045EAD07025686668C9
:1017A000D54006FA03F32B4323606368D34063609C
:1017B00062680A43B0F1004F626003D80DD120780F
:1017C000C0070AD52068401C2060206828B96068DE
:1017D000401C60604FF0FF3070BD6068884204BFFD
:1017E00020680028F6D1002070BD00BF0000F0FF87
:1017F0000000F07FF446400D40EAC120490006D2C7
:1018000000F014F8004248BF6FF00040604700F05D
:101810000DF84FF0004188428CBF084640426047B7
:10182000400D40EAC120490080F00D8040F00040AA
:10183000490DA1F58061491C05D4D1F11F0154BFA8
:10184000C840C01770474FF000007047010040F1DA
:101850000980F446404200F005F851F0004160472D
:10186000010000BF09D0B0FA80F18840C91CC1F561
:101870008461090501EBD02140057047F0B44FF0B9
:10188000004591EA030F44BF6B4000F04FBB00BF1F
:10189000841A71EB030604D26E40001BB141121989
:1018A00073414FF4001C1CEB410F34BF7CEB43062B
:1018B00084E00C0DA4EB1356362E7DDC012E43DCA8
:1018C00045EAC32343EA525312BFD20292025B0895
:1018D000240545EAC12141EA5051D2EBC02099418B
:1018E00025D407D1B0FA80F610FA06F164D00020B2
:1018F000203608E0B1FA81F6B140C6F1200220FAA4
:1019000002F21143B0404FEAF474B4EB465434F0A1
:1019100001064FEA74040AD8D6F50016760D04F0D5
:101920000044F04061FA06F25040F1404840C00ADD
:1019300040EA415021F0004128BF5FEA500550F1D4
:10194000000044EBD12137E045EAC323DB0A45EA36
:10195000C121C90AB6F120050EDD42EA0242120C8D
:10196000C5F1200603FA06F6EB4042EA06056D4291
:10197000984161F100010DE062FA06F5F240554030
:1019800063FA06FC82EA0C02F3405A406D42904131
:1019900061EB030111F4801F05D1641E620502D0C2
:1019A0006D004041494121F48011430875F1004325
:1019B00050F1000041EB0451F0BC70471CEB410FAB
:1019C00015D223F0004352EA43060BD04FEA4C0CE9
:1019D000BCEB410F04D80C0D661E342EB7DDEBE7CF
:1019E000801A994150EA410608BF0021E4E708BF88
:1019F0001CEB430F28BF6FF00001DDE7B0B581EAB3
:101A0000030C0CF0004C40F2FF7515EA11541DBF99
:101A100015EA1357AC42AF4239E0E41923EA4553C3
:101A200043F48013C90241F0004141EA505EC7020D
:101A30001100A7FB020200284FF00000EEFB01207E
:101A40004FF00001E3FB072118BF42F001024018EC
:101A500000214941E3FB0E01A4F580640F0302D28B
:101A600052004041494154F101046CDD470872F1D4
:101A7000004250F1000051EB0451A1F580115CBF10
:101A800041EA0C01B0BD4CEA05510020B0BD05EAA9
:101A90001357AC4214BFAF4241E050EA410E1CBFA5
:101AA00052EA430E02E061460020B0BD24423C44AD
:101AB0001BD15FEA070EF6D0090302BF01460020E2
:101AC000AEF1140EB1FA81F7AEEB070401FA07FE8E
:101AD0000C37C7F1200100FA07F7C8404EEA000EA4
:101AE00023EA455343F48013A2E733F00043B3FAEB
:101AF00083F704BFB2FA82FE77440B3FE41BB7F1D1
:101B0000200E2FBF02FA0EF3BB40C7F1200E22FABF
:101B10000EFE38BF43EA0E03BA40641C82E750EA67
:101B2000410E14BF52EA430E6FF000014FF400174C
:101B300017EB430F8ABF194617EB410FB5E74CEA85
:101B400005510020B0BDD4F10104B4F120070FDA33
:101B5000C4F12007520828BF42F0010210FA07F52D
:101B600001FA07F7E1BF2A43E0403843E1400FE0C4
:101B7000352C98DCC7F1200452EA400220FA07F223
:101B800018BF42F0010231FA07F0A1400A430021D8
:101B900072F1004250F1000051EB0C01B0BD0000A9
:101BA0002DE9F04140F2FF7581EA030C0CF0004C86
:101BB00015EA11541DBF15EA1357AC42AF42E9E0D4
:101BC000BC41C1F31301C3F31303801A994143F4D9
:101BD000801304D2641E4000494180185941C90253
:101BE00041EA5051B1FBF3F603FB1611A2FB067557
:101BF000D7EBC020A94102D2761E80185941C902F4
:101C000041EA5051B1FBF3FE03FB1E11A2FB0E751E
:101C1000D7EBC020A94103D2AEF1010E8018594183
:101C2000890241EA9051760546EA8E2EB1FBF3F621
:101C300003FB1611A2FB0675D7EB8020A94102D247
:101C4000761E80185941C90241EA50514EEA060EEB
:101C5000B1FBF3F603FB1611A2FB0675D7EBC02010
:101C6000A94102D2761E80185941C90241EA505159
:101C7000B1FBF3F703FB1711A2FB0735D3EBC02031
:101C8000A94167F100070CBF004247F0010766F366
:101C9000D5274FEA1E31B80814F5806414DDBD075E
:101CA00075F1004250EB0E5051EB045111F5801FBD
:101CB0005CBF41EA0C01BDE8F0814CF07F6141F06E
:101CC000E0410020BDE8F081BD076D0840EA0E50FC
:101CD00041F48011D4F10104B4F120060ADAC4F110
:101CE00020060200E04001FA06F3E1401843B2404A
:101CF00015430EE0342C14DCC6F1200445EA4005FF
:101D00006D0820FA06F2154321FA06F0A1400D43B2
:101D1000002175F1004250F1000051EB0C01BDE8CB
:101D2000F08100205FEA0C01BDE8F081CFB9921884
:101D30005B41B3FA83F704BFB2FA82F6BF190B3FD7
:101D4000B7F120062FBF02FA06F3BB40C7F1200609
:101D500022FA06F638BF3343BA401CB1E419641EB8
:101D60002FE77F4231F00041B1FA81F404BFB0FAAD
:101D700080F6A4190B3CB4F120062FBF00FA06F13F
:101D8000A140C4F1200620FA06F638BF3143A04036
:101D90003C1B16E7AC421ABF05EA1357AF4214E0EA
:101DA00050EA41061CBF52EA4306BFE750EA41072A
:101DB000304661461CBF41EA0551BDE8F08152EA58
:101DC000430C08BFC143BDE8F08100204FF400166A
:101DD00016EB410F98BF16EB430F08BF16EB410FF0
:101DE00024BFC14305E016EB430F0CBF61464CEA2C
:101DF0000551BDE8F081000080B5134800F000F9FE
:101E00000FF24C020FF244010160426241600FF296
:101E10004402826381600FF24402C160016141614A
:101E200081618162C16201634163C2630164416493
:101E300001BD10B5044800F0E3F80446206808B975
:101E4000FFF7DAFF204610BD500000200000000020
:101E50002E00000066616C73650000007472756589
:101E60000000000091FBF2F303FB1211C0E9003106
:101E70007047000080B5DFF80C0000F0C1F8806901
:101E800002BD0000E000002030B430B90FF248007D
:101E9000D0E90045C2E900451BE00170012030BCDB
:101EA000704730B431B90FF23800D0E90045C3E9CA
:101EB00000450EE01AB930BC6FF00100704708B160
:101EC0000A7802800978481E804130BCC043C00FA8
:101ED0007047002030BC7047000000000000000088
:101EE00000000000000000000749086808B1002059
:101EF00070470648C008C00008600549C908C90005
:101F0000091A0160704700BF98080020570500209B
:101F10005007002070470000F0B44FF0004591EAF0
:101F2000030C44BF6B40FFF7B3BC00BF841A71EBD6
:101F3000030603D2001BB141121973414FF4001C78
:101F40001CEB410F34BF7CEB430443E00C0DA4EBCE
:101F50001356352E50DC45EAC323DB0A45EAC1217E
:101F6000C912B6F120050DDD63FA05F6EB4086EAED
:101F70000305124218BF45F00105C01851F10001D8
:101F80000CD213E062FA06F5F2405540F3415A4094
:101F9000B340F3405A408018594107D349085FEADB
:101FA00030005FEA350528BF45F0010501F58011D5
:101FB000420875F1004250F1000041EB0451F0BCC1
:101FC0004FF4001C1CEB410F38BF70470020090D77
:101FD000090570471CEB410F10D252EA43060BD0A3
:101FE000BCEB410F05D80C0DAB43661E342EB5DD9E
:101FF00002E0AB4380185941F0BC7047F0BC704719
:1020000070470000F8B5044600250026002C7AD061
:1020100004F12407786820B9B8603870204600F0D1
:10202000CAFA204600F05CFA7968C9066CD401004F
:102030006AD17968DFF86C2421F4885141F00201FB
:1020400079602168D4F804C0E3689142E26904BF72
:10205000B2F5402F4FF4002242EA0C02D4F808C037
:10206000BCF5807F14BFBCF1010F4FF48075D4F82C
:1020700014C0BCF1010F42EA43020FD133B9A36986
:102080005B1E5B0343F400631D4307E07B6843F082
:1020900020037B60BB6843F00103BB604B6823F403
:1020A00069432B434B602168DFF8FC538B682B405E
:1020B00013438B60A168B1F5807F18BF012902D15D
:1020C0002169491E0E052168CB6A23F4700333434E
:1020D000CB622168DFF8D43389681940914208D176
:1020E0000021B960796821F0020141F001017960B5
:1020F000F2BD786820F0020040F010007860B86807
:1021000040F00100B86003E0786840F010007860AB
:102110000120F2BD70B500F0F3F801D1022070BDCE
:1021200000F0DFF8010019D16968DFF8842300F0BE
:10213000DCF80DD10E6816F4702F09D000F0B8F855
:1021400000F0C4F846BFAB6823F00603002302E0AA
:1021500000F0A8F8F4E700F0B1F8D7E09FE02DE92F
:10216000F04182B00446002000900D4600F0A4FA31
:10217000064620688168C90504F1240707D57868F8
:1021800040F02000786000203870012085E0416830
:10219000C90512D4C06A10F4700F0ED1206800680F
:1021A00080075CD415F1010FF8D0002D4FD000F05E
:1021B00083FA801B8542F1D249E0022000F0F0FA58
:1021C0002168DFF8F0E2D1F810C0DFF8EC22DFF888
:1021D000EC321CEA0E0F02BFD1F80CC0DFF8E0E2CF
:1021E0001CEA0E0F09D1D1F810C01CEA030F05BF7D
:1021F000C96811422921142112E0D1F810C01CEA4B
:10220000030F04BFCB68134207D00B69DFF8B42279
:10221000134204BFC968114201D1542100E0FC21DE
:10222000DFF8A4221268B2FBF0F001FB00F802E034
:102230000098401C00900098404510D215F1010F05
:10224000F6D025B100F038FA801B8542F0D27868CC
:1022500040F0040078600020387003201DE0216801
:102260006FF012000860786840F4007078602068B1
:10227000806800F46020B0F5602F04BFE06800289B
:102280000AD1786820F4807078607868C00403D43C
:10229000786840F0010078600020BDE8F6810021F8
:1022A000297070BD6E6826F480166E605B6870479A
:1022B0006B6843F480136B600B687047AB6000235E
:1022C0002B706FF0020325682B6070475B0505D506
:1022D0006B6823F4005343F480536B606B68DB043A
:1022E0007047012028702046A6E0114041F480711B
:1022F00069602368DFF8D421DFF8D4119342704776
:10230000044604F1240528780128704723689C6856
:1023100004F46024B4F5602F09D1934203D1096815
:1023200011F4702F03D1996841F4A00102E099687B
:1023300041F48011996070BD0068C06C7047F8B5B9
:102340000A46002100F1240300911C78012C01D1E0
:102350000220F2BD01241C701F265768146805680E
:10236000072F08D27F1E07EB8707D5F834C000F08F
:102370005DF86C6312E00D2F08D2FF1F07EB870793
:10238000D5F830C000F052F82C6307E00D3F07EBA2
:102390008707D5F82CC000F049F8EC6207271668CB
:1023A000956804680A2E08D30A3E06EB4606D4F860
:1023B0000CC000F035F8E56006E006EB4606D4F800
:1023C00010C000F02DF825611468102C18BF112CD6
:1023D00022D100683F4CA04219D13F480468240232
:1023E0001AD4046844F4000404601068102813D15F
:1023F00035483A4A0068B0FBF2F00A225043009098
:10240000009800281CBF0098401EF8D104E05868CE
:1024100040F0200058600121002018700846F2BDED
:10242000B7402CEA0707B5403D437047BE402CEA51
:102430000606BC403443704738B50446002000907F
:1024400020688168C90729D4816841F00101816051
:102450001D4822490068B0FBF1F001E00098401EE1
:10246000009000980028F9D100F026F90546206870
:102470008068C00712D400F01FF9401B0328F6D370
:1024800004F12400416841F010014160816841F08D
:102490000101816000210170012032BD002032BDA8
:1024A00000000000003C0140FDF7E1FFFE0E1FFFB1
:1024B000FEFDFFFF244992249224490092244912F0
:1024C00024499200499224000C0000200028014079
:1024D00004240140002401400824014040420F0030
:1024E00038B5044620688168C90719D5816849084C
:1024F0004900816000F0E0F8054620688068C00768
:102500000ED500F0D9F8401B0328F6D3A06A40F09E
:102510001000A062E06A40F00100E062012032BDDC
:10252000002032BD80B55C48016841F001010160C6
:10253000016801F0010100910099416841F080516A
:102540004160406800F0805000900098032000F047
:10255000AEF9002200216FF00B0000F0B5F9002267
:1025600000216FF00A0000F0AFF9002200216FF0A7
:10257000090000F0A9F9002200216FF0040000F02A
:10258000A3F9002200216FF0030000F09DF9002262
:1025900000216FF0010000F097F9002200214FF0B8
:1025A000FF3000F091F93D48016821F0E06141F011
:1025B0008061016001BD00683949884200D07047E0
:1025C00000B5354885B0016841F40071016001A98A
:1025D000006800F400700090009801200190032032
:1025E0000290304800F0C6F905B000BD80B5006823
:1025F0002D49884213D12D48016841F02001016026
:102600000022006800F02000009000210098372090
:1026100000F05AF9BDE80240372000F072B901BD60
:1026200010B586B00068224A1E4C1B49904210D15A
:10263000086840F480400860086800F4804000901A
:1026400001A900984FF4007000F01EF84FF480606C
:1026500010E0184A904215D1486840F400304860B4
:10266000486800F40030009001A90098042000F0B0
:102670000BF80820019001A9002002900390204649
:1026800000F078F906B010BD0190022002900320FE
:102690000490204600F06EB918100240040001407A
:1026A0000024014000080140001400401C100240BA
:1026B000003801400044004001484068704700BFB6
:1026C000000000202DE9F041044682B02078664DDC
:1026D000C00750D5A8690026C00009D4A86940F0F9
:1026E0008050A8610126A86900F0805000900098F1
:1026F0005E4F3868C00510D4386840F48070386088
:10270000FFF7DAFF80463868C00506D4FFF7D4FF2C
:10271000A0EB08006528F6D320E0E86910F44070CB
:102720001EBF616801F44071884219D05049E869C0
:1027300001220A6020F4407000220A60E861C007AC
:102740000ED5FFF7B9FF0746E869800708D4FFF701
:10275000B3FFC01B41F289318842F5D303201DE04D
:10276000E869616820F440700843E8611EB1A86917
:1027700020F08050A8612078800705D52868A168DE
:1027800020F44040084328602078C00605D528681A
:10279000616920F48000084328600020BDE8F681CC
:1027A00030B585B0054601A80FF2D401314C102296
:1027B000FEF764FE0FF2D8000088ADF8000000209C
:1027C000012D26D0022D44D0042D18BF082D1DD078
:1027D000102D47D161682268D20143D501A8C1F309
:1027E0008342C903805C09D56168234AC1F3404133
:1027F0001DF80110B2FBF1F1484301E01F494843C5
:10280000616849022ED44000032129E000F09AFBC0
:1028100028E0216A40F202320A40B2F5817F08BF07
:102820004FF400401ED001F44072B2F5007F05D194
:10283000616A890716D549F6404013E001F44071FA
:10284000B1F5407F0ED1216889030BD54FF22440AA
:1028500008E000F0A9FB6168C1F38131491C49001F
:10286000B0FBF1F005B030BD041002400070004034
:10287000400442420010024000127A0000093D006C
:1028800002030405060708090A0B0C0D0E0F1010B1
:10289000010200000901002806D52E4A00F00F00B1
:1028A000104400F8041C70472B4A115470472B4900
:1028B0000A684FF6FF0300021A4000F4E06010437C
:1028C000274A10430860704738B5244B1B68C3F390
:1028D0000223C3F10704052C28BF04241D1D072D66
:1028E00034BF0023DB1E012505FA04F4641E2140D9
:1028F000994005FA03F35B1E1A401143BDE83440CA
:10290000C8E7012100F01F029140164AFFE7400985
:1029100042F82010704710B5401EB0F1807F01D3FF
:10292000012010BD104C60600F214FF0FF30FFF709
:10293000B1FF0020A06007202060002010BD0A49E0
:10294000042808680CBF40F0040020F00400086070
:102950007047000018ED00E000E400E00CED00E03E
:102960000000FA0500E100E010E000E000F000B82F
:10297000704700002DE9F8474FF0000E0022644B2D
:10298000DFF89081DFF890914FF00F0A012707FAE6
:1029900002F60F683740B74240F0AA804C685CB33B
:1029A000012C1AD0022C1FD0032C31D0112C17D09F
:1029B000122C1DD0594DAC421CBF594DAC421BD0FE
:1029C000584DAC421CBF584DAC4215D0574DAC428F
:1029D0001CBF574DAC420FD01CE0D1F80CE019E001
:1029E000CC6804F1040E15E0CC6804F1080E11E087
:1029F000CC6804F10C0E0DE08C6814B94FF0040E95
:102A000008E0012C4FF0080E14BF4661066101E09A
:102A10004FF0000EFF2F02D88446940004E0A2F18C
:102A2000080400F1040CA400DCF800500AFA04F6D3
:102A3000B5430EFA04F42C43CCF800404C68E40093
:102A400056D5D9F8004044F00104C9F800404FEAD7
:102A5000920CD9F8005005F001040094009C58F83D
:102A60002C50940004F00C040AFA04F6B543314EDD
:102A7000B04208BF002618D02F4EB04208BF012632
:102A800013D02E4EB04208BF02260ED02C4EB042BC
:102A900008BF032609D02B4EB04208BF042604D03D
:102AA000294EB0420CBF0526062606FA04F42C4334
:102AB00048F82C40FD434C68E4031C684CBF3C4381
:102AC0002C401C604C68A4035C684CBF3C432C4009
:102AD0005C604C68E4029C684CBF3C432C409C60AA
:102AE0004C68A40247BFDC682743DF682F40DF60E3
:102AF000521C102AFFF44AAFBDE8F18780680840F5
:102B000018BF0120C0B2704702B9090401617047C3
:102B1000000401400800014018100240000011109C
:102B200000001210000021100000221000003110DF
:102B30000000321000080140000C0140001001406C
:102B40000014014000180140001C01402DE9F84329
:102B50000446DFF868542078C00747D5686800F05D
:102B60000C00042807D0686800F00C0008280AD17F
:102B70006868C00307D52868800337D560680028D7
:102B800034D1012049E16068B0F5803F09D008B92F
:102B900028680AE0B0F5A02F286806D140F480200C
:102BA0002860286840F4803005E020F480302860F8
:102BB000286820F480202860606858B1FFF77CFD09
:102BC00007462868800311D4FFF776FDC01B6528EF
:102BD000F7D31FE1FFF770FD07462868800305D58E
:102BE000FFF76AFDC01B6528F7D313E12078DFF8F3
:102BF000D863800718D5686810F00C0F07D0686894
:102C000000F00C00082825D16868C00322D4286889
:102C1000800702D520690128B3D12868616920F0B6
:102C2000F80040EAC1002860207800073ED5A1697D
:102C3000DFF89803002965D001210160FFF73CFD12
:102C40000746686A800722D4FFF736FDC01B0328B9
:102C5000F7D3DFE0206968B101203060FFF72CFD79
:102C6000074628688007D8D4FFF726FDC01B032835
:102C7000F7D3CFE03060FFF71FFD074628688007D5
:102C8000D2D5FFF719FDC01B0328F7D3C2E0DFF848
:102C900030030068C0084FF47A71B0FBF1F0009087
:102CA00000BF0098411E00280091F9D1207840070C
:102CB0006FD5E869C0004FF000080AD4E86940F019
:102CC0008050E8614FF00108E86900F08050009002
:102CD0000098DFF8FC92D9F80000C0051FD4D9F89D
:102CE000000040F48070C9F80000FFF7E5FC0746DB
:102CF000D9F80000C00512D4FFF7DEFCC01B652820
:102D0000F6D387E00160FFF7D7FC0746686A8007C3
:102D1000CCD5FFF7D1FCC01B0328F7D37AE0E068DD
:102D2000012808D008B9286A09E00528286A06D1D0
:102D300040F004002862286A40F0010005E04008E5
:102D400040002862286A20F00400286241F2893994
:102D5000E06858B1FFF7B0FC0746286A800711D435
:102D6000FFF7AAFCC01B4845F7D353E0FFF7A4FCCC
:102D70000746286A800705D5FFF79EFCC01B48451B
:102D8000F7D347E0B8F1000F03D0E86920F0805096
:102D9000E861E06900283FD0696801F00C0108296A
:102DA0003FF4EFAE02282AD100F039F80746286830
:102DB000800105D5FFF780FCC01B0328F7D329E06D
:102DC000206AB0F5803F05D16868A16820F4003022
:102DD000084368606868216A20F474100843616AD7
:102DE00008436860012000F01BF80746286880014E
:102DF00012D4FFF761FCC01B0328F7D30AE000F0F0
:102E00000EF807462868800106D5FFF755FCC01B61
:102E10000328F7D3032000E00020BDE8F283002060
:102E20003066FFF749BC2DE9F8436A4E0446306826
:102E3000884600F00700404502D200F079F852D1F0
:102E400020785E4F800705D57868A16820F0F000F3
:102E5000084378602078C0073DD56068012802D11A
:102E60003968890303E00228396802D1890102D454
:102E700039E0890737D57968890840EA81007860A8
:102E800041F28939FFF718FC0546606801280AD12C
:102E9000786800F00C0004281DD0FFF70DFC401BE3
:102EA0004845F5D315E002280AD1786800F00C00F7
:102EB000082810D0FFF700FC401B4845F5D308E078
:102EC000786810F00C0F06D0FFF7F6FB401B484562
:102ED000F6D303202AE0306800F00700804504D2D2
:102EE00000F026F801D0012020E02078400705D529
:102EF0007868E16820F4E060084378602078000793
:102F000006D57868216920F4605040EAC1007860F5
:102F100000F018F87A683049C2F30312895CC8409F
:102F200027490860002000F069F80020BDE8F2831E
:102F30003068C00848EAC0003060306800F0070020
:102F40004045704710B586B001A80FF29C011022D1
:102F5000FEF794FA0FF2A00020490088ADF80000B7
:102F60000A68184802F00C03082B10D101ABC2F319
:102F70008344D2031B5D08D50968C1F3404158431F
:102F80001DF80110B0FBF1F001E01548584306B000
:102F900010BD0B48006870470948104A0068126865
:102FA0001049C2F3022206E005480C4A0068126884
:102FB0000C49C2F3C222895CC8407047001002402D
:102FC0000C00002000127A000000424280044242BD
:102FD0000070004000200240D03900080410024078
:102FE00000093D005C3B00080203040506070809D0
:102FF0000A0B0C0D0E0F10100102000038B50D4D1C
:10300000297804464FF47A70B0FBF1F00A49096858
:10301000B1FBF0F0FFF77FFC50B9102C08D2002272
:1030200021464FF0FF30FFF74FFCAC60002032BD6F
:10303000012032BD000000200C00002038B5050042
:1030400001D1012032BD05F13804607808B900F0E3
:1030500013F800F015F800F007F821F02A01FFE757
:10306000416100F017F832BD2868016921F49041F0
:10307000016128684169704720702846FFF7D0BA7F
:10308000242060702868C16821F40051C16028467E
:1030900000F099B82868C16841F40051C16000206F
:1030A000606020206070A070002070472DE9F84318
:1030B000044604F138070D467878202816469846CD
:1030C00041D10DB1300001D101203DE03878012817
:1030D00039D0012038700020786021207870FFF707
:1030E000EBFAA6848146E68403E0216815F8010B1B
:1030F0004860E08CC0B1E08C401EE08400F026F80F
:103100000DD100F02AF8B8B928882168C0F308006A
:1031100048602069002814BF6D1CAD1CE9E700F071
:103120001CF80028E1D007E0CDF800804B460022D3
:10313000402100F014F808B1032005E02020787049
:103140000020387000E00220BDE8F2834B46A06802
:10315000CDF80080B0F5805F7047002280212046C6
:1031600006E0C16020684169490849004161704733
:103170002DE9F041069E04460D4690461F46206804
:1031800000682840A8420CBF01200020404517D10C
:1031900016F1010FF3D026B1FFF78EFAC01B86425D
:1031A000EDD22068C16821F4D071FFF7DAFF04F195
:1031B000380020214170817000210170032000E05F
:1031C0000020BDE8F0812DE9F04704466425206821
:1031D0000169E26821F44051114301611926C16877
:1031E000304A1140A26811432269114362691143B8
:1031F000C1604169A26921F44071114341612A49CA
:1032000088420ED1FFF7D0FE0746FFF7CDFE80467D
:10321000FFF7CAFE8146FFF7C7FE8246FFF7C4FEEE
:103220000DE0FFF7B9FE0746FFF7B6FE8046FFF751
:10323000B3FE8146FFF7B0FE8246FFF7ADFE06FB08
:1032400008F361688900B3FBF1F306FB07F206FBA4
:1032500009F7B7FBF1F7B7FBF5F705FB17331B01D0
:103260003233B2FBF1F2B3FBF5F3B2FBF5F203F04C
:10327000F00303EB0212704306FB0AF3B0FBF1F01C
:10328000B3FBF1F3B0FBF5F005FB10300001323079
:10329000B0FBF5F0216800F00F0080188860BDE8F1
:1032A000F0870000F3E9FFFF0038014010B582B05D
:1032B00004468DF800004FF41673012269467348E6
:1032C000FFF7F4FE204616BDF0B58BB000F0F4F821
:1032D00000F098F86E486F4E01686F4F41F0200182
:1032E00001600022016801F020010091009901684D
:1032F00041F0040101604FF48171006800F00400A6
:10330000009000983046FFF7FFFB4FF48170069065
:1033100006A901200790002008900220099030465D
:10332000FFF728FB5D4838600020B860F8607861DE
:103330004FF46020F8610020786001203861384641
:10334000FEF760FE00B1FEE7039003A901200490A0
:10335000002005903846FEF7F2FF00B1FEE7504826
:1033600038634FF4E13078630020B863F863386461
:103370000C2078640020B864F86407F13000FFF78F
:103380005DFE00B1FEE74148464901604FF49641B9
:10339000416000218160C16001610C214161002117
:1033A0008161C161FFF74AFE00B1FEE73E48386720
:1033B00041F61F4078670020B86742F20F70F86747
:1033C0000020C7F8880007F1700000F087F800B10E
:1033D000FEE70190029001A907F1700000F084F966
:1033E00000B1FEE7384600F0A5F904460D4602217B
:1033F000304600F0D2F922462B460FF2B40000F01E
:103400001BFAEFE700B595B001200B9000210D915C
:103410004FF480300C90012113900F914FF4E01085
:103420000221149012910BA8FFF790FB00B1FEE768
:103430000F200090022102200190002002904FF402
:1034400080600390002004906846FFF7ECFC00B118
:10345000FEE7022005904FF40040079005A8FFF713
:1034600031F900B1FEE7FFF794FD1049B0FBF1F030
:10347000FFF751FA0420FFF762FA002200214FF013
:10348000FF30FFF721FA15B000BD00005008002002
:10349000181002400008014050070020002401409D
:1034A00000440040003801400014004040420F003A
:1034B00077252E316C66000080B50748016841F021
:1034C000100101600320FFF7F2F90020FFF796FDDD
:1034D000FFF728F8002002BD0020024038B50400A4
:1034E00001D1012032BD00F010F818B92870204633
:1034F000FFF77CF8FFE702206870211D206800F0CC
:10350000ACF801206870002032BD04F13C056878F9
:10351000704710B5044620680169890715D5C16850
:10352000890712D56FF002010161012121778069BD
:1035300010F0030F204602D000F090F903E000F0F5
:103540008EF900F087F8002020772068016949078C
:1035500015D5C168490712D56FF004010161022138
:103560002177806910F4407F204602D000F076F980
:1035700003E000F074F900F06DF800202077206877
:103580000169090715D5C168090712D56FF008014F
:10359000016104212177C06910F0030F204602D099
:1035A00000F05CF903E000F05AF900F053F8002055
:1035B000207720680169C90615D5C168C90612D5EA
:1035C0006FF01001016108212177C06910F4407F7C
:1035D000204602D000F042F903E000F040F900F08C
:1035E00039F80020207720680169C90708D5C1682B
:1035F000C90705D56FF001010161204600F030F9DF
:1036000020680169090608D5C168090605D56FF06B
:1036100080010161204600F024F920680169490613
:1036200008D5C168490605D56FF040010161204603
:1036300000F018F92068016989060AD5C168890671
:1036400007D56FF0200101612046BDE8104000F071
:103650000AB910BD204600F007B9F0B51D4B1E4A4F
:1036600004681E4D1E4E1F4F984218BF904208D04E
:10367000B0F1804F18BFB84203D0B04218BFA84283
:103680000FD1D1F804C0984224F0700418BF9042C2
:103690004CEA040407D0B0F1804F1CBFB842B042DE
:1036A00001D0A84203D1CD6824F440742C434D6965
:1036B00024F080042C43046098428C68C4620C6837
:1036C000846212BF90420969016301214161F0BD2A
:1036D00000000000002C014000340140000C0040BC
:1036E000000800400004004030B500F13C021378AF
:1036F000012B01D1022030BD01231370022353702E
:1037000003685C6824F070045C6003685C680D68A2
:103710002C435C6003689C6824F080049C60006813
:10372000836849681943816001205070002010703F
:1037300030BD0000D0B50446FEF7ECFC4FF47A71C2
:103740002046FEF70CFD0026002718BB2046FEF79A
:10375000F3FDFEF785F800222C4BFEF74FF94FF0F2
:1037600066322B4BFEF74AF92A4A2B4BFEF7D4FB65
:10377000284A2A4BFEF714FA4FF03332284BFEF753
:103780003DF900220023FDF77FFF06460F463CBFB0
:103790000026002730463946D0BD2DE9F0410646C7
:1037A0000F4600F063F800240025012829D100F01D
:1037B0003DF83A463146442000F0AEF8194800F092
:1037C000CDF83946304600F051F800F02FF83A466F
:1037D0003146BE2000F0A0F83946304600F06AF8C5
:1037E00080463946304600F065F848EA002001047A
:1037F00007D4FEF735F800220B4BFEF7FFF804461E
:103800000D4620462946BDE8F08100000000303F0B
:1038100066660A409A9999999999D9BF9999F93FF9
:1038200033334040B0710B000000B03F3A463146A0
:10383000CC2000F071B800000EB400B582B003A92E
:10384000009102466B460121034878440A30FCF798
:103850006FFC06BC5DF810FBC502000070477047A6
:1038600070477047704770477047000070B5044656
:103870000D460022FFF748F9244E302030604FF407
:10388000FA7000F06BF80122294600F042F840205F
:103890003060322000F062F829462046FFF72EF90A
:1038A000441EA4414FF4FA7000F058F83020306004
:1038B000E00F70BD2DE9F041044688460025002642
:1038C000124F002200F024F8022000F047F84020B8
:1038D00038600A2000F042F841462046FFF70EF912
:1038E00018B10120B0400543EDB2372000F036F8A2
:1038F000012200F00DF830203860761C022000F024
:103900002DF8082EDDDB2846BDE8F08100080140D7
:1039100041462046FFF7F8B8F8B504460D4616466E
:1039200000270120B840044207D0002200F012F81E
:10393000022000F013F8012200E0002200F00AF853
:103940003C2000F00BF8012200F004F87F1C082F47
:10395000E7DBF1BD31462846FFF7D6B838B5044657
:10396000FEF7AAFE14F1010F054602D004480078C4
:103970000419FEF7A1FE401BA042FAD331BD00BFDF
:10398000000000200E480F4A016841F0010101606B
:103990004168114041600C4A0168114001600168B2
:1039A00021F480210160416821F4FE0141604FF45F
:1039B0001F0181604FF000600449086070470000FB
:1039C000001002400000FFF8FFFFF6FE08ED00E0E7
:1039D00000000000000000000102030406070809BF
:1039E00019E050F8041BCB0744BFA9F10103591893
:1039F000121F0023042A41F8043BF9D25FEA827CBB
:103A00000B4604D54FF0000CA1F800C09B1CD10759
:103A100044BF0021197050F8042B002AE1D17047EF
:103A200030B5016842688468014401EB5203D20753
:103A300048BF4C44994201D10C3030BD11F9012BE3
:103A400011F8015B002A04F8015B02D5521CF9D180
:103A5000F0E7521EF4D5EDE77047FEE7FEE7FEE71C
:103A6000FEE770477047704780B500F009F8BDE881
:103A70000140FEF77BBF0148FFF74BBDC0070020A8
:103A800002484168027851184160704700000020E8
:103A900010B5074979441831064C7C44163404E0CB
:103AA0000A68081D114488470146A142F8D110BD9B
:103AB000080000002400000029FFFFFF4C01000067
:103AC000500700200000000059FFFFFF84010000A4
:103AD000700000000000002000F00BF8002801D06A
:103AE000FFF7D6FF0020C046C046FFF7EDFB00F011
:103AF00002F80120704700F001B800000746384680
:103B000000F002F8FBE7000080B5C046C046024A5C
:103B100011001820ABBEFBE72600020038B50446B2
:103B20000D46284600F006F8A84218BF002420469B
:103B300032BD00000149FFF7B9BB00BF10000020F3
:103B4000014880470148004785390008513B00087B
:103B5000C046C046C046C046FFF7BEFF000000009A
:103B600001020304FFF7FEBFFFF7FEBFFFF7FEBF32
:103B7000FFF7FEBFFFF7FEBFFFF7FEBFFFF7FEBF79
:103B8000FFF7FEBFFFF7FEBFFFF7FEBFFFF7FEBF69
:103B9000FFF7FEBFFFF7FEBFFFF7FEBFFFF7FEBF59
:103BA000FFF7FEBFFFF7FEBFFFF7FEBFFFF7FEBF49
:103BB000FFF7FEBFFFF7FEBFFFF7FEBFFFF7FEBF39
:103BC000FFF7FEBFFFF7FEBFFFF7FEBFFFF7FEBF29
:103BD000FFF7FEBFFFF7FEBFFFF7FEBFFFF7FEBF19
:103BE000FFF7FEBFFFF7FEBFFFF7FEBFFFF7FEBF09
:103BF000FFF7FEBFFFF7FEBFFFF7FEBFFFF7FEBFF9
:103C0000FFF7FEBFFFF7FEBFFFF7FEBFFFF7FEBFE8
:103C1000FFF7FEBFFFF7FEBFFFF7FEBFFFF7FEBFD8
:103C2000FFF7FEBFFFF7FEBFFFF7FEBFFFF7FEBFC8
:103C3000FFF7FEBFFFF7FEBFFFF7FEBFFFF7FEBFB8
:103C4000FFF7FEBFFFF7FEBFFFF7FEBFFFF7FEBFA8
:103C50000001F9000010FC0022A24A040204010144
:103C60000008002050080020000800200008002064
:103C7000000800204D00002034000020C400F8FFA0
:083C8000DC00FAFF8100D10015
:0400000508003B5163
:00000001FF
